{
  "contractName": "Credit",
  "abi": [
    {
      "inputs": [
        {
          "internalType": "uint256",
          "name": "_requestedAmount",
          "type": "uint256"
        },
        {
          "internalType": "uint256",
          "name": "_requestedRepayments",
          "type": "uint256"
        },
        {
          "internalType": "uint256",
          "name": "_interest",
          "type": "uint256"
        },
        {
          "internalType": "bytes32",
          "name": "_description",
          "type": "bytes32"
        }
      ],
      "payable": false,
      "stateMutability": "nonpayable",
      "type": "constructor"
    },
    {
      "anonymous": false,
      "inputs": [
        {
          "indexed": true,
          "internalType": "address",
          "name": "_address",
          "type": "address"
        },
        {
          "indexed": true,
          "internalType": "uint256",
          "name": "_amount",
          "type": "uint256"
        },
        {
          "indexed": true,
          "internalType": "uint256",
          "name": "timestamp",
          "type": "uint256"
        }
      ],
      "name": "LogBorrowerChangeReturned",
      "type": "event"
    },
    {
      "anonymous": false,
      "inputs": [
        {
          "indexed": true,
          "internalType": "address",
          "name": "_address",
          "type": "address"
        },
        {
          "indexed": true,
          "internalType": "bool",
          "name": "fraudStatus",
          "type": "bool"
        },
        {
          "indexed": true,
          "internalType": "uint256",
          "name": "timestamp",
          "type": "uint256"
        }
      ],
      "name": "LogBorrowerIsFraud",
      "type": "event"
    },
    {
      "anonymous": false,
      "inputs": [
        {
          "indexed": true,
          "internalType": "address",
          "name": "_address",
          "type": "address"
        },
        {
          "indexed": true,
          "internalType": "uint256",
          "name": "timestamp",
          "type": "uint256"
        }
      ],
      "name": "LogBorrowerRepaymentFinished",
      "type": "event"
    },
    {
      "anonymous": false,
      "inputs": [
        {
          "indexed": true,
          "internalType": "address",
          "name": "_address",
          "type": "address"
        },
        {
          "indexed": true,
          "internalType": "uint256",
          "name": "_amount",
          "type": "uint256"
        },
        {
          "indexed": true,
          "internalType": "uint256",
          "name": "timestamp",
          "type": "uint256"
        }
      ],
      "name": "LogBorrowerRepaymentInstallment",
      "type": "event"
    },
    {
      "anonymous": false,
      "inputs": [
        {
          "indexed": true,
          "internalType": "address",
          "name": "_address",
          "type": "address"
        },
        {
          "indexed": true,
          "internalType": "uint256",
          "name": "_amount",
          "type": "uint256"
        },
        {
          "indexed": true,
          "internalType": "uint256",
          "name": "timestamp",
          "type": "uint256"
        }
      ],
      "name": "LogBorrowerWithdrawal",
      "type": "event"
    },
    {
      "anonymous": false,
      "inputs": [
        {
          "indexed": true,
          "internalType": "address",
          "name": "_address",
          "type": "address"
        },
        {
          "indexed": true,
          "internalType": "uint256",
          "name": "timestamp",
          "type": "uint256"
        }
      ],
      "name": "LogCreditInitialized",
      "type": "event"
    },
    {
      "anonymous": false,
      "inputs": [
        {
          "indexed": true,
          "internalType": "bool",
          "name": "active",
          "type": "bool"
        },
        {
          "indexed": true,
          "internalType": "uint256",
          "name": "timestamp",
          "type": "uint256"
        }
      ],
      "name": "LogCreditStateActiveChanged",
      "type": "event"
    },
    {
      "anonymous": false,
      "inputs": [
        {
          "indexed": true,
          "internalType": "enum Credit.State",
          "name": "state",
          "type": "uint8"
        },
        {
          "indexed": true,
          "internalType": "uint256",
          "name": "timestamp",
          "type": "uint256"
        }
      ],
      "name": "LogCreditStateChanged",
      "type": "event"
    },
    {
      "anonymous": false,
      "inputs": [
        {
          "indexed": true,
          "internalType": "address",
          "name": "_address",
          "type": "address"
        },
        {
          "indexed": true,
          "internalType": "uint256",
          "name": "_amount",
          "type": "uint256"
        },
        {
          "indexed": true,
          "internalType": "uint256",
          "name": "timestamp",
          "type": "uint256"
        }
      ],
      "name": "LogLenderChangeReturned",
      "type": "event"
    },
    {
      "anonymous": false,
      "inputs": [
        {
          "indexed": true,
          "internalType": "address",
          "name": "_address",
          "type": "address"
        },
        {
          "indexed": true,
          "internalType": "uint256",
          "name": "_amount",
          "type": "uint256"
        },
        {
          "indexed": true,
          "internalType": "uint256",
          "name": "timestamp",
          "type": "uint256"
        }
      ],
      "name": "LogLenderInvestment",
      "type": "event"
    },
    {
      "anonymous": false,
      "inputs": [
        {
          "indexed": true,
          "internalType": "address",
          "name": "_address",
          "type": "address"
        },
        {
          "indexed": true,
          "internalType": "uint256",
          "name": "_amount",
          "type": "uint256"
        },
        {
          "indexed": true,
          "internalType": "uint256",
          "name": "timestamp",
          "type": "uint256"
        }
      ],
      "name": "LogLenderRefunded",
      "type": "event"
    },
    {
      "anonymous": false,
      "inputs": [
        {
          "indexed": true,
          "internalType": "address",
          "name": "_address",
          "type": "address"
        },
        {
          "indexed": true,
          "internalType": "uint256",
          "name": "timestamp",
          "type": "uint256"
        }
      ],
      "name": "LogLenderVoteForFraud",
      "type": "event"
    },
    {
      "anonymous": false,
      "inputs": [
        {
          "indexed": true,
          "internalType": "address",
          "name": "_address",
          "type": "address"
        },
        {
          "indexed": true,
          "internalType": "uint256",
          "name": "timestamp",
          "type": "uint256"
        }
      ],
      "name": "LogLenderVoteForRevoking",
      "type": "event"
    },
    {
      "anonymous": false,
      "inputs": [
        {
          "indexed": true,
          "internalType": "address",
          "name": "_address",
          "type": "address"
        },
        {
          "indexed": true,
          "internalType": "uint256",
          "name": "_amount",
          "type": "uint256"
        },
        {
          "indexed": true,
          "internalType": "uint256",
          "name": "timestamp",
          "type": "uint256"
        }
      ],
      "name": "LogLenderWithdrawal",
      "type": "event"
    },
    {
      "anonymous": false,
      "inputs": [
        {
          "indexed": true,
          "internalType": "address",
          "name": "_currentOwner",
          "type": "address"
        },
        {
          "indexed": true,
          "internalType": "address",
          "name": "_newOwner",
          "type": "address"
        }
      ],
      "name": "LogOwnershipTransfered",
      "type": "event"
    },
    {
      "constant": true,
      "inputs": [],
      "name": "active",
      "outputs": [
        {
          "internalType": "bool",
          "name": "",
          "type": "bool"
        }
      ],
      "payable": false,
      "stateMutability": "view",
      "type": "function"
    },
    {
      "constant": true,
      "inputs": [],
      "name": "borrower",
      "outputs": [
        {
          "internalType": "address payable",
          "name": "",
          "type": "address"
        }
      ],
      "payable": false,
      "stateMutability": "view",
      "type": "function"
    },
    {
      "constant": true,
      "inputs": [],
      "name": "description",
      "outputs": [
        {
          "internalType": "bytes32",
          "name": "",
          "type": "bytes32"
        }
      ],
      "payable": false,
      "stateMutability": "view",
      "type": "function"
    },
    {
      "constant": false,
      "inputs": [],
      "name": "destroy",
      "outputs": [],
      "payable": false,
      "stateMutability": "nonpayable",
      "type": "function"
    },
    {
      "constant": false,
      "inputs": [
        {
          "internalType": "address",
          "name": "_recipient",
          "type": "address"
        }
      ],
      "name": "destroyAndSend",
      "outputs": [],
      "payable": false,
      "stateMutability": "nonpayable",
      "type": "function"
    },
    {
      "constant": true,
      "inputs": [
        {
          "internalType": "address",
          "name": "",
          "type": "address"
        }
      ],
      "name": "fraudVoters",
      "outputs": [
        {
          "internalType": "bool",
          "name": "",
          "type": "bool"
        }
      ],
      "payable": false,
      "stateMutability": "view",
      "type": "function"
    },
    {
      "constant": true,
      "inputs": [],
      "name": "fraudVotes",
      "outputs": [
        {
          "internalType": "uint256",
          "name": "",
          "type": "uint256"
        }
      ],
      "payable": false,
      "stateMutability": "view",
      "type": "function"
    },
    {
      "constant": true,
      "inputs": [],
      "name": "interest",
      "outputs": [
        {
          "internalType": "uint256",
          "name": "",
          "type": "uint256"
        }
      ],
      "payable": false,
      "stateMutability": "view",
      "type": "function"
    },
    {
      "constant": true,
      "inputs": [],
      "name": "lastRepaymentDate",
      "outputs": [
        {
          "internalType": "uint256",
          "name": "",
          "type": "uint256"
        }
      ],
      "payable": false,
      "stateMutability": "view",
      "type": "function"
    },
    {
      "constant": true,
      "inputs": [
        {
          "internalType": "address",
          "name": "",
          "type": "address"
        }
      ],
      "name": "lenders",
      "outputs": [
        {
          "internalType": "bool",
          "name": "",
          "type": "bool"
        }
      ],
      "payable": false,
      "stateMutability": "view",
      "type": "function"
    },
    {
      "constant": true,
      "inputs": [],
      "name": "lendersCount",
      "outputs": [
        {
          "internalType": "uint256",
          "name": "",
          "type": "uint256"
        }
      ],
      "payable": false,
      "stateMutability": "view",
      "type": "function"
    },
    {
      "constant": true,
      "inputs": [
        {
          "internalType": "address",
          "name": "",
          "type": "address"
        }
      ],
      "name": "lendersInvestedAmount",
      "outputs": [
        {
          "internalType": "uint256",
          "name": "",
          "type": "uint256"
        }
      ],
      "payable": false,
      "stateMutability": "view",
      "type": "function"
    },
    {
      "constant": true,
      "inputs": [],
      "name": "owner",
      "outputs": [
        {
          "internalType": "address",
          "name": "",
          "type": "address"
        }
      ],
      "payable": false,
      "stateMutability": "view",
      "type": "function"
    },
    {
      "constant": true,
      "inputs": [],
      "name": "remainingRepayments",
      "outputs": [
        {
          "internalType": "uint256",
          "name": "",
          "type": "uint256"
        }
      ],
      "payable": false,
      "stateMutability": "view",
      "type": "function"
    },
    {
      "constant": true,
      "inputs": [],
      "name": "repaidAmount",
      "outputs": [
        {
          "internalType": "uint256",
          "name": "",
          "type": "uint256"
        }
      ],
      "payable": false,
      "stateMutability": "view",
      "type": "function"
    },
    {
      "constant": true,
      "inputs": [],
      "name": "repaymentInstallment",
      "outputs": [
        {
          "internalType": "uint256",
          "name": "",
          "type": "uint256"
        }
      ],
      "payable": false,
      "stateMutability": "view",
      "type": "function"
    },
    {
      "constant": true,
      "inputs": [],
      "name": "requestedAmount",
      "outputs": [
        {
          "internalType": "uint256",
          "name": "",
          "type": "uint256"
        }
      ],
      "payable": false,
      "stateMutability": "view",
      "type": "function"
    },
    {
      "constant": true,
      "inputs": [],
      "name": "requestedDate",
      "outputs": [
        {
          "internalType": "uint256",
          "name": "",
          "type": "uint256"
        }
      ],
      "payable": false,
      "stateMutability": "view",
      "type": "function"
    },
    {
      "constant": true,
      "inputs": [],
      "name": "requestedRepayments",
      "outputs": [
        {
          "internalType": "uint256",
          "name": "",
          "type": "uint256"
        }
      ],
      "payable": false,
      "stateMutability": "view",
      "type": "function"
    },
    {
      "constant": true,
      "inputs": [],
      "name": "returnAmount",
      "outputs": [
        {
          "internalType": "uint256",
          "name": "",
          "type": "uint256"
        }
      ],
      "payable": false,
      "stateMutability": "view",
      "type": "function"
    },
    {
      "constant": true,
      "inputs": [],
      "name": "revokeTimeNeeded",
      "outputs": [
        {
          "internalType": "uint256",
          "name": "",
          "type": "uint256"
        }
      ],
      "payable": false,
      "stateMutability": "view",
      "type": "function"
    },
    {
      "constant": true,
      "inputs": [
        {
          "internalType": "address",
          "name": "",
          "type": "address"
        }
      ],
      "name": "revokeVoters",
      "outputs": [
        {
          "internalType": "bool",
          "name": "",
          "type": "bool"
        }
      ],
      "payable": false,
      "stateMutability": "view",
      "type": "function"
    },
    {
      "constant": true,
      "inputs": [],
      "name": "revokeVotes",
      "outputs": [
        {
          "internalType": "uint256",
          "name": "",
          "type": "uint256"
        }
      ],
      "payable": false,
      "stateMutability": "view",
      "type": "function"
    },
    {
      "constant": true,
      "inputs": [],
      "name": "state",
      "outputs": [
        {
          "internalType": "enum Credit.State",
          "name": "",
          "type": "uint8"
        }
      ],
      "payable": false,
      "stateMutability": "view",
      "type": "function"
    },
    {
      "constant": true,
      "inputs": [],
      "name": "getBalance",
      "outputs": [
        {
          "internalType": "uint256",
          "name": "",
          "type": "uint256"
        }
      ],
      "payable": false,
      "stateMutability": "view",
      "type": "function"
    },
    {
      "constant": false,
      "inputs": [],
      "name": "invest",
      "outputs": [],
      "payable": true,
      "stateMutability": "payable",
      "type": "function"
    },
    {
      "constant": false,
      "inputs": [],
      "name": "repay",
      "outputs": [],
      "payable": true,
      "stateMutability": "payable",
      "type": "function"
    },
    {
      "constant": false,
      "inputs": [],
      "name": "withdraw",
      "outputs": [],
      "payable": false,
      "stateMutability": "nonpayable",
      "type": "function"
    },
    {
      "constant": false,
      "inputs": [],
      "name": "requestInterest",
      "outputs": [],
      "payable": false,
      "stateMutability": "nonpayable",
      "type": "function"
    },
    {
      "constant": true,
      "inputs": [],
      "name": "getCreditInfo",
      "outputs": [
        {
          "internalType": "address",
          "name": "",
          "type": "address"
        },
        {
          "internalType": "bytes32",
          "name": "",
          "type": "bytes32"
        },
        {
          "internalType": "uint256",
          "name": "",
          "type": "uint256"
        },
        {
          "internalType": "uint256",
          "name": "",
          "type": "uint256"
        },
        {
          "internalType": "uint256",
          "name": "",
          "type": "uint256"
        },
        {
          "internalType": "uint256",
          "name": "",
          "type": "uint256"
        },
        {
          "internalType": "uint256",
          "name": "",
          "type": "uint256"
        },
        {
          "internalType": "uint256",
          "name": "",
          "type": "uint256"
        },
        {
          "internalType": "enum Credit.State",
          "name": "",
          "type": "uint8"
        },
        {
          "internalType": "bool",
          "name": "",
          "type": "bool"
        },
        {
          "internalType": "uint256",
          "name": "",
          "type": "uint256"
        }
      ],
      "payable": false,
      "stateMutability": "view",
      "type": "function"
    },
    {
      "constant": false,
      "inputs": [],
      "name": "revokeVote",
      "outputs": [],
      "payable": false,
      "stateMutability": "nonpayable",
      "type": "function"
    },
    {
      "constant": false,
      "inputs": [],
      "name": "refund",
      "outputs": [],
      "payable": false,
      "stateMutability": "nonpayable",
      "type": "function"
    },
    {
      "constant": false,
      "inputs": [],
      "name": "fraudVote",
      "outputs": [
        {
          "internalType": "bool",
          "name": "",
          "type": "bool"
        }
      ],
      "payable": false,
      "stateMutability": "nonpayable",
      "type": "function"
    },
    {
      "constant": false,
      "inputs": [
        {
          "internalType": "enum Credit.State",
          "name": "_state",
          "type": "uint8"
        }
      ],
      "name": "changeState",
      "outputs": [
        {
          "internalType": "uint256",
          "name": "",
          "type": "uint256"
        }
      ],
      "payable": false,
      "stateMutability": "nonpayable",
      "type": "function"
    },
    {
      "constant": false,
      "inputs": [],
      "name": "toggleActive",
      "outputs": [
        {
          "internalType": "bool",
          "name": "",
          "type": "bool"
        }
      ],
      "payable": false,
      "stateMutability": "nonpayable",
      "type": "function"
    }
  ],
  "bytecode": "0x60806040526001600d60006101000a81548160ff021916908315150217905550600060105560006011556001420160135560006014553480156200004257600080fd5b506040516200245638038062002456833981810160405260808110156200006857600080fd5b8101908080519060200190929190805190602001909291908051906020019092919080519060200190929190505050336000806101000a81548173ffffffffffffffffffffffffffffffffffffffff021916908373ffffffffffffffffffffffffffffffffffffffff16021790555032600160006101000a81548173ffffffffffffffffffffffffffffffffffffffff021916908373ffffffffffffffffffffffffffffffffffffffff16021790555081600681905550836003819055508260078190555082600881905550620001526006546003546200021f60201b62001ec01790919060201c565b600481905550620001766007546004546200023c60201b620021a21790919060201c565b60098190555080600c8190555042600a819055506000600d60016101000a81548160ff02191690836005811115620001aa57fe5b021790555042600160009054906101000a900473ffffffffffffffffffffffffffffffffffffffff1673ffffffffffffffffffffffffffffffffffffffff167ff9f75c99c0e3522cd19ffc66fd6c94989a3f0821d37d5c5bb176aab904c6335d60405160405180910390a35050505062000256565b6000808284019050838110156200023257fe5b8091505092915050565b6000808284816200024957fe5b0490508091505092915050565b6121f080620002666000396000f3fe6080604052600436106102045760003560e01c806383197ef011610118578063d85da7b6116100a0578063f06817cf1161006f578063f06817cf146107c0578063f35eeaef1461086f578063f5074f411461089a578063f98b8028146108eb578063fbaa78f31461091657610204565b8063d85da7b614610745578063e8b5e51f14610774578063e8bb52991461077e578063efd475ab146107a957610204565b8063b01a2adf116100e7578063b01a2adf146105e4578063b99bea241461064d578063c19d93fb14610678578063c392f766146106b1578063d10f6630146106dc57610204565b806383197ef0146105205780638da5cb5b146105375780639366b60d1461058e5780639381ab25146105b957610204565b806343c14b221161019b5780637284e4161161016a5780637284e4161461041d57806376adf71e1461044857806378860268146104735780637c03afcd1461049e5780637df1f1b9146104c957610204565b806343c14b221461039957806347505b5d146103b057806348c21947146103db578063590e1ae31461040657610204565b806328fd10d7116101d757806328fd10d7146102e057806329c68dc1146103495780633ccfd60b14610378578063402d88831461038f57610204565b806302fb0c5e1461020957806312065fe014610238578063162fce6914610263578063268f11531461028e575b600080fd5b34801561021557600080fd5b5061021e61097b565b604051808215151515815260200191505060405180910390f35b34801561024457600080fd5b5061024d61098e565b6040518082815260200191505060405180910390f35b34801561026f57600080fd5b50610278610996565b6040518082815260200191505060405180910390f35b34801561029a57600080fd5b506102ca600480360360208110156102b157600080fd5b81019080803560ff16906020019092919050505061099c565b6040518082815260200191505060405180910390f35b3480156102ec57600080fd5b5061032f6004803603602081101561030357600080fd5b81019080803573ffffffffffffffffffffffffffffffffffffffff169060200190929190505050610a84565b604051808215151515815260200191505060405180910390f35b34801561035557600080fd5b5061035e610aa4565b604051808215151515815260200191505060405180910390f35b34801561038457600080fd5b5061038d610b7d565b005b610397610d54565b005b3480156103a557600080fd5b506103ae611043565b005b3480156103bc57600080fd5b506103c5611223565b6040518082815260200191505060405180910390f35b3480156103e757600080fd5b506103f0611229565b6040518082815260200191505060405180910390f35b34801561041257600080fd5b5061041b61122f565b005b34801561042957600080fd5b50610432611503565b6040518082815260200191505060405180910390f35b34801561045457600080fd5b5061045d611509565b6040518082815260200191505060405180910390f35b34801561047f57600080fd5b5061048861150f565b6040518082815260200191505060405180910390f35b3480156104aa57600080fd5b506104b3611515565b6040518082815260200191505060405180910390f35b3480156104d557600080fd5b506104de61151b565b604051808273ffffffffffffffffffffffffffffffffffffffff1673ffffffffffffffffffffffffffffffffffffffff16815260200191505060405180910390f35b34801561052c57600080fd5b50610535611541565b005b34801561054357600080fd5b5061054c6115d4565b604051808273ffffffffffffffffffffffffffffffffffffffff1673ffffffffffffffffffffffffffffffffffffffff16815260200191505060405180910390f35b34801561059a57600080fd5b506105a36115fa565b6040518082815260200191505060405180910390f35b3480156105c557600080fd5b506105ce611600565b6040518082815260200191505060405180910390f35b3480156105f057600080fd5b506106336004803603602081101561060757600080fd5b81019080803573ffffffffffffffffffffffffffffffffffffffff169060200190929190505050611606565b604051808215151515815260200191505060405180910390f35b34801561065957600080fd5b50610662611626565b6040518082815260200191505060405180910390f35b34801561068457600080fd5b5061068d61162c565b6040518082600581111561069d57fe5b60ff16815260200191505060405180910390f35b3480156106bd57600080fd5b506106c661163f565b6040518082815260200191505060405180910390f35b3480156106e857600080fd5b5061072b600480360360208110156106ff57600080fd5b81019080803573ffffffffffffffffffffffffffffffffffffffff169060200190929190505050611645565b604051808215151515815260200191505060405180910390f35b34801561075157600080fd5b5061075a611665565b604051808215151515815260200191505060405180910390f35b61077c611812565b005b34801561078a57600080fd5b50610793611afe565b6040518082815260200191505060405180910390f35b3480156107b557600080fd5b506107be611b04565b005b3480156107cc57600080fd5b506107d5611d83565b604051808c73ffffffffffffffffffffffffffffffffffffffff1673ffffffffffffffffffffffffffffffffffffffff1681526020018b81526020018a815260200189815260200188815260200187815260200186815260200185815260200184600581111561084157fe5b60ff168152602001831515151581526020018281526020019b50505050505050505050505060405180910390f35b34801561087b57600080fd5b50610884611e13565b6040518082815260200191505060405180910390f35b3480156108a657600080fd5b506108e9600480360360208110156108bd57600080fd5b81019080803573ffffffffffffffffffffffffffffffffffffffff169060200190929190505050611e19565b005b3480156108f757600080fd5b50610900611e8b565b6040518082815260200191505060405180910390f35b34801561092257600080fd5b506109656004803603602081101561093957600080fd5b81019080803573ffffffffffffffffffffffffffffffffffffffff169060200190929190505050611e91565b6040518082815260200191505060405180910390f35b600d60009054906101000a900460ff1681565b600047905090565b60075481565b60008060009054906101000a900473ffffffffffffffffffffffffffffffffffffffff1673ffffffffffffffffffffffffffffffffffffffff163373ffffffffffffffffffffffffffffffffffffffff16146109f757600080fd5b81600d60016101000a81548160ff02191690836005811115610a1557fe5b021790555042600d60019054906101000a900460ff166005811115610a3657fe5b7faaae373901e745122c2e0925ad006227969c6cd190b7d5ea2fb7fdbd1d955b3560405160405180910390a3600d60019054906101000a900460ff166005811115610a7d57fe5b9050919050565b600e6020528060005260406000206000915054906101000a900460ff1681565b60008060009054906101000a900473ffffffffffffffffffffffffffffffffffffffff1673ffffffffffffffffffffffffffffffffffffffff163373ffffffffffffffffffffffffffffffffffffffff1614610aff57600080fd5b600d60009054906101000a900460ff1615600d60006101000a81548160ff02191690831515021790555042600d60009054906101000a900460ff1615157f160914ea27c60aa29a5f3a69d74e6069869de36e38939de1e0a66b921d8623d260405160405180910390a3600d60009054906101000a900460ff16905090565b60011515600d60009054906101000a900460ff16151514610b9d57600080fd5b600160009054906101000a900473ffffffffffffffffffffffffffffffffffffffff1673ffffffffffffffffffffffffffffffffffffffff163373ffffffffffffffffffffffffffffffffffffffff1614610bf757600080fd5b600354471015610c0657600080fd5b600580811115610c1257fe5b600d60019054906101000a900460ff166005811115610c2d57fe5b1415610c3857600080fd5b6001600d60016101000a81548160ff02191690836005811115610c5757fe5b021790555042600d60019054906101000a900460ff166005811115610c7857fe5b7faaae373901e745122c2e0925ad006227969c6cd190b7d5ea2fb7fdbd1d955b3560405160405180910390a342473373ffffffffffffffffffffffffffffffffffffffff167f20734f14d107b526674905e470e35d0a474f9fb996a7bdb034c839c8894524e660405160405180910390a4600160009054906101000a900473ffffffffffffffffffffffffffffffffffffffff1673ffffffffffffffffffffffffffffffffffffffff166108fc479081150290604051600060405180830381858888f19350505050158015610d51573d6000803e3d6000fd5b50565b600160009054906101000a900473ffffffffffffffffffffffffffffffffffffffff1673ffffffffffffffffffffffffffffffffffffffff163373ffffffffffffffffffffffffffffffffffffffff1614610dae57600080fd5b60016005811115610dbb57fe5b600d60019054906101000a900460ff166005811115610dd657fe5b14610de057600080fd5b600060085411610def57600080fd5b600954341015610dfe57600080fd5b60045460055410610e0b57fe5b6008600081548092919060019003919050555042600b819055506000809050600954341115610eff57610e4960095434611ea990919063ffffffff16565b9050610e5e8134611ea990919063ffffffff16565b60095414610e6857fe5b34811115610e7257fe5b3373ffffffffffffffffffffffffffffffffffffffff166108fc829081150290604051600060405180830381858888f19350505050158015610eb8573d6000803e3d6000fd5b5042813373ffffffffffffffffffffffffffffffffffffffff167f5c9874487a2258c6bd6dc39a2cfcf7ea944b50b79d9a7152668779687b2ebd8d60405160405180910390a45b42610f138234611ea990919063ffffffff16565b3373ffffffffffffffffffffffffffffffffffffffff167f350a09487d622378c6efbda255f996387696319f803a2e53eee64f7aa70be85a60405160405180910390a4610f7d610f6c8234611ea990919063ffffffff16565b600554611ec090919063ffffffff16565b600581905550600454600554141561104057423373ffffffffffffffffffffffffffffffffffffffff167f25630de45a38a90cbca3a2eb35a8197e51b56d6d912581711e5e3773fe77cabc60405160405180910390a36002600d60016101000a81548160ff02191690836005811115610ff257fe5b021790555042600d60019054906101000a900460ff16600581111561101357fe5b7faaae373901e745122c2e0925ad006227969c6cd190b7d5ea2fb7fdbd1d955b3560405160405180910390a35b50565b60011515600d60009054906101000a900460ff1615151461106357600080fd5b60135442101561107257600080fd5b6000600581111561107f57fe5b600d60019054906101000a900460ff16600581111561109a57fe5b146110a457600080fd5b60011515600e60003373ffffffffffffffffffffffffffffffffffffffff1673ffffffffffffffffffffffffffffffffffffffff16815260200190815260200160002060009054906101000a900460ff1615151461110157600080fd5b60001515601260003373ffffffffffffffffffffffffffffffffffffffff1673ffffffffffffffffffffffffffffffffffffffff16815260200190815260200160002060009054906101000a900460ff1615151461115e57600080fd5b6011600081548092919060010191905055506001601260003373ffffffffffffffffffffffffffffffffffffffff1673ffffffffffffffffffffffffffffffffffffffff16815260200190815260200160002060006101000a81548160ff021916908315150217905550423373ffffffffffffffffffffffffffffffffffffffff167fd7173ce7e4ce6f6d075259ac1a467ab8290db175a2cee8587a663c006b97e12960405160405180910390a3601154601054141561122157611220611edc565b5b565b60135481565b60095481565b60011515600d60009054906101000a900460ff1615151461124f57600080fd5b60011515600e60003373ffffffffffffffffffffffffffffffffffffffff1673ffffffffffffffffffffffffffffffffffffffff16815260200190815260200160002060009054906101000a900460ff161515146112ac57600080fd5b600460058111156112b957fe5b600d60019054906101000a900460ff1660058111156112d457fe5b146112de57600080fd5b600f60003373ffffffffffffffffffffffffffffffffffffffff1673ffffffffffffffffffffffffffffffffffffffff1681526020019081526020016000205447101561132757fe5b3373ffffffffffffffffffffffffffffffffffffffff166108fc600f60003373ffffffffffffffffffffffffffffffffffffffff1673ffffffffffffffffffffffffffffffffffffffff168152602001908152602001600020549081150290604051600060405180830381858888f193505050501580156113ac573d6000803e3d6000fd5b5042600f60003373ffffffffffffffffffffffffffffffffffffffff1673ffffffffffffffffffffffffffffffffffffffff168152602001908152602001600020543373ffffffffffffffffffffffffffffffffffffffff167f71e252e33f19f0223f47f27d00910548d26488b9b55cb5b410b75e273152f8d660405160405180910390a46000471415611501576000600d60006101000a81548160ff02191690831515021790555042600d60009054906101000a900460ff1615157f160914ea27c60aa29a5f3a69d74e6069869de36e38939de1e0a66b921d8623d260405160405180910390a36003600d60016101000a81548160ff021916908360058111156114b357fe5b021790555042600d60019054906101000a900460ff1660058111156114d457fe5b7faaae373901e745122c2e0925ad006227969c6cd190b7d5ea2fb7fdbd1d955b3560405160405180910390a35b565b600c5481565b60105481565b60035481565b60145481565b600160009054906101000a900473ffffffffffffffffffffffffffffffffffffffff1681565b6000809054906101000a900473ffffffffffffffffffffffffffffffffffffffff1673ffffffffffffffffffffffffffffffffffffffff163373ffffffffffffffffffffffffffffffffffffffff161461159a57600080fd5b6000809054906101000a900473ffffffffffffffffffffffffffffffffffffffff1673ffffffffffffffffffffffffffffffffffffffff16ff5b600260009054906101000a900473ffffffffffffffffffffffffffffffffffffffff1681565b600b5481565b60115481565b60126020528060005260406000206000915054906101000a900460ff1681565b600a5481565b600d60019054906101000a900460ff1681565b60065481565b60156020528060005260406000206000915054906101000a900460ff1681565b600060011515600d60009054906101000a900460ff1615151461168757600080fd5b60011515600e60003373ffffffffffffffffffffffffffffffffffffffff1673ffffffffffffffffffffffffffffffffffffffff16815260200190815260200160002060009054906101000a900460ff161515146116e457600080fd5b60001515601560003373ffffffffffffffffffffffffffffffffffffffff1673ffffffffffffffffffffffffffffffffffffffff16815260200190815260200160002060009054906101000a900460ff1615151461174157600080fd5b6014600081548092919060010191905055506001601560003373ffffffffffffffffffffffffffffffffffffffff1673ffffffffffffffffffffffffffffffffffffffff16815260200190815260200160002060006101000a81548160ff021916908315150217905550423373ffffffffffffffffffffffffffffffffffffffff167f1db613004119dde2a638b639fba9960c0e6064ee7c2d06f300e41c78920ed6dc60405160405180910390a3601454601054141561180a57611803611f4a565b905061180f565b600190505b90565b6000600581111561181f57fe5b600d60019054906101000a900460ff16600581111561183a57fe5b1461184457600080fd5b600080905060035447106119935761186760035447611ea990919063ffffffff16565b905061187c8147611ea990919063ffffffff16565b6003541461188657fe5b3481111561189057fe5b6000811115611926573373ffffffffffffffffffffffffffffffffffffffff166108fc829081150290604051600060405180830381858888f193505050501580156118df573d6000803e3d6000fd5b5042813373ffffffffffffffffffffffffffffffffffffffff167f566803f6e271b911c84f87631bcd310d6a6510bf8882577a96fc76975703e43160405160405180910390a45b6001600d60016101000a81548160ff0219169083600581111561194557fe5b021790555042600d60019054906101000a900460ff16600581111561196657fe5b7faaae373901e745122c2e0925ad006227969c6cd190b7d5ea2fb7fdbd1d955b3560405160405180910390a35b6001600e60003373ffffffffffffffffffffffffffffffffffffffff1673ffffffffffffffffffffffffffffffffffffffff16815260200190815260200160002060006101000a81548160ff021916908315150217905550601060008154809291906001019190505550611a61611a138234611ea990919063ffffffff16565b600f60003373ffffffffffffffffffffffffffffffffffffffff1673ffffffffffffffffffffffffffffffffffffffff16815260200190815260200160002054611ec090919063ffffffff16565b600f60003373ffffffffffffffffffffffffffffffffffffffff1673ffffffffffffffffffffffffffffffffffffffff1681526020019081526020016000208190555042611ab88234611ea990919063ffffffff16565b3373ffffffffffffffffffffffffffffffffffffffff167f1b0969ce7f5b05c5e0969329a05cdbd7e2e2f6cee33ba26fd6e6bbcff82312cd60405160405180910390a450565b60085481565b60011515600d60009054906101000a900460ff16151514611b2457600080fd5b60011515600e60003373ffffffffffffffffffffffffffffffffffffffff1673ffffffffffffffffffffffffffffffffffffffff16815260200190815260200160002060009054906101000a900460ff16151514611b8157600080fd5b60026005811115611b8e57fe5b600d60019054906101000a900460ff166005811115611ba957fe5b14611bb357600080fd5b6000600f60003373ffffffffffffffffffffffffffffffffffffffff1673ffffffffffffffffffffffffffffffffffffffff1681526020019081526020016000205411611bff57600080fd5b6000611c186010546004546121a290919063ffffffff16565b905080471015611c2457fe5b3373ffffffffffffffffffffffffffffffffffffffff166108fc829081150290604051600060405180830381858888f19350505050158015611c6a573d6000803e3d6000fd5b5042813373ffffffffffffffffffffffffffffffffffffffff167f052f6685df2f773f854b17db1d82e2352e222010daaf8175761f02ef8782c40360405160405180910390a46000471415611d80576000600d60006101000a81548160ff02191690831515021790555042600d60009054906101000a900460ff1615157f160914ea27c60aa29a5f3a69d74e6069869de36e38939de1e0a66b921d8623d260405160405180910390a36003600d60016101000a81548160ff02191690836005811115611d3257fe5b021790555042600d60019054906101000a900460ff166005811115611d5357fe5b7faaae373901e745122c2e0925ad006227969c6cd190b7d5ea2fb7fdbd1d955b3560405160405180910390a35b50565b6000806000806000806000806000806000600160009054906101000a900473ffffffffffffffffffffffffffffffffffffffff16600c54600354600754600954600854600654600454600d60019054906101000a900460ff16600d60009054906101000a900460ff16478a9a509a509a509a509a509a509a509a509a509a509a509a50909192939495969798999a565b60045481565b6000809054906101000a900473ffffffffffffffffffffffffffffffffffffffff1673ffffffffffffffffffffffffffffffffffffffff163373ffffffffffffffffffffffffffffffffffffffff1614611e7257600080fd5b8073ffffffffffffffffffffffffffffffffffffffff16ff5b60055481565b600f6020528060005260406000206000915090505481565b600082821115611eb557fe5b818303905092915050565b600080828401905083811015611ed257fe5b8091505092915050565b6004600d60016101000a81548160ff02191690836005811115611efb57fe5b021790555042600d60019054906101000a900460ff166005811115611f1c57fe5b7faaae373901e745122c2e0925ad006227969c6cd190b7d5ea2fb7fdbd1d955b3560405160405180910390a3565b60006060600160009054906101000a900473ffffffffffffffffffffffffffffffffffffffff16604051602401808273ffffffffffffffffffffffffffffffffffffffff1673ffffffffffffffffffffffffffffffffffffffff1681526020019150506040516020818303038152906040527fbb9e4247000000000000000000000000000000000000000000000000000000007bffffffffffffffffffffffffffffffffffffffffffffffffffffffff19166020820180517bffffffffffffffffffffffffffffffffffffffffffffffffffffffff838183161783525050505090506000600260009054906101000a900473ffffffffffffffffffffffffffffffffffffffff1673ffffffffffffffffffffffffffffffffffffffff16826040518082805190602001908083835b6020831061209b5780518252602082019150602081019050602083039250612078565b6001836020036101000a0380198251168184511680821785525050505050509050019150506000604051808303816000865af19150503d80600081146120fd576040519150601f19603f3d011682016040523d82523d6000602084013e612102565b606091505b505090508015612131576005600d60016101000a81548160ff0219169083600581111561212b57fe5b02179055505b42811515600160009054906101000a900473ffffffffffffffffffffffffffffffffffffffff1673ffffffffffffffffffffffffffffffffffffffff167fc1bb1d1e99d1e8d2705ba85717226a3fd9a86e4de2284b00dfe6f33538d5249f60405160405180910390a4809250505090565b6000808284816121ae57fe5b049050809150509291505056fea265627a7a72315820b53409fbdd5172b32579990901c52446271dd7bd931562ca5a24f3a7b04a5c4064736f6c63430005100032",
  "source": "\r\npragma solidity ^0.5.0;\r\n\r\nimport './common/SafeMath.sol';\r\nimport './common/Destructible.sol';\r\n\r\n/** @title Credit contract.\r\n  * Inherits the Ownable and Destructible contracts.\r\n  */\r\ncontract Credit is Destructible {\r\n\r\n    /** @dev Usings */\r\n    // Using SafeMath for our calculations with uints.\r\n    using SafeMath for uint;\r\n\r\n    /** @dev State variables */\r\n    // Borrower is the person who generated the credit contract.\r\n    address payable public borrower;\r\n\r\n    address public owner;\r\n    // Amount requested to be funded (in wei).\r\n    uint public requestedAmount;\r\n\r\n    // Amount that will be returned by the borrower (including the interest).\r\n    uint public returnAmount;\r\n\r\n    // Currently repaid amount.\r\n    uint public repaidAmount;\r\n\r\n    // Credit interest.\r\n    uint public interest;\r\n\r\n    // Requested number of repayment installments.\r\n    uint public requestedRepayments;\r\n\r\n    // Remaining repayment installments.\r\n    uint public remainingRepayments;\r\n\r\n    // The value of the repayment installment.\r\n    uint public repaymentInstallment;\r\n\r\n    // The timestamp of credit creation.\r\n    uint public requestedDate;\r\n\r\n    // The timestamp of last repayment date.\r\n    uint public lastRepaymentDate;\r\n\r\n    // Description of the credit.\r\n    bytes32 public description;\r\n\r\n    // Active state of the credit.\r\n    bool public active = true;\r\n\r\n    /** Stages that every credit contract gets through.\r\n      *   investment - During this state only investments are allowed.\r\n      *   repayment - During this stage only repayments are allowed.\r\n      *   interestReturns - This stage gives investors opportunity to request their returns.\r\n      *   expired - This is the stage when the contract is finished its purpose.\r\n      *   fraud - The borrower was marked as fraud.\r\n    */\r\n    enum State { investment, repayment, interestReturns, expired, revoked, fraud }\r\n    State public state;\r\n\r\n    // Storing the lenders for this credit.\r\n    mapping(address => bool) public lenders;\r\n\r\n    // Storing the invested amount by each lender.\r\n    mapping(address => uint) public lendersInvestedAmount;\r\n\r\n    // Store the lenders count, later needed for revoke vote.\r\n    uint public lendersCount = 0;\r\n\r\n    // Revoke votes count.\r\n    uint public revokeVotes = 0;\r\n\r\n    // Revoke voters.\r\n    mapping(address => bool) public revokeVoters;\r\n\r\n    // Time needed for a revoke voting to start.\r\n    // To be changed in production accordingly.\r\n    uint public revokeTimeNeeded = block.timestamp + 1 seconds;\r\n\r\n    // Fraud votes count.\r\n    uint public fraudVotes = 0;\r\n\r\n    // Fraud voters.\r\n    mapping(address => bool) public fraudVoters;\r\n\r\n    /** @dev Events */\r\n    event LogCreditInitialized(address indexed _address, uint indexed timestamp);\r\n    event LogCreditStateChanged(State indexed state, uint indexed timestamp);\r\n    event LogCreditStateActiveChanged(bool indexed active, uint indexed timestamp);\r\n\r\n    event LogBorrowerWithdrawal(address indexed _address, uint indexed _amount, uint indexed timestamp);\r\n    event LogBorrowerRepaymentInstallment(address indexed _address, uint indexed _amount, uint indexed timestamp);\r\n    event LogBorrowerRepaymentFinished(address indexed _address, uint indexed timestamp);\r\n    event LogBorrowerChangeReturned(address indexed _address, uint indexed _amount, uint indexed timestamp);\r\n    event LogBorrowerIsFraud(address indexed _address, bool indexed fraudStatus, uint indexed timestamp);\r\n\r\n    event LogLenderInvestment(address indexed _address, uint indexed _amount, uint indexed timestamp);\r\n    event LogLenderWithdrawal(address indexed _address, uint indexed _amount, uint indexed timestamp);\r\n    event LogLenderChangeReturned(address indexed _address, uint indexed _amount, uint indexed timestamp);\r\n    event LogLenderVoteForRevoking(address indexed _address, uint indexed timestamp);\r\n    event LogLenderVoteForFraud(address indexed _address, uint indexed timestamp);\r\n    event LogLenderRefunded(address indexed _address, uint indexed _amount, uint indexed timestamp);\r\n\r\n    /** @dev Modifiers */\r\n    modifier isActive() {\r\n        require(active == true);\r\n        _;\r\n    }\r\n\r\n    modifier onlyBorrower() {\r\n        require(msg.sender == borrower);\r\n        _;\r\n    }\r\n\r\n    modifier onlyLender() {\r\n        require(lenders[msg.sender] == true);\r\n        _;\r\n    }\r\n\r\n    modifier canAskForInterest() {\r\n        require(state == State.interestReturns);\r\n        require(lendersInvestedAmount[msg.sender] > 0);\r\n        _;\r\n    }\r\n\r\n    modifier canInvest() {\r\n        require(state == State.investment);\r\n        _;\r\n    }\r\n\r\n    modifier canRepay() {\r\n        require(state == State.repayment);\r\n        _;\r\n    }\r\n\r\n    modifier canWithdraw() {\r\n        require(address(this).balance >= requestedAmount);\r\n        _;\r\n    }\r\n\r\n    modifier isNotFraud() {\r\n        require(state != State.fraud);\r\n        _;\r\n    }\r\n\r\n    modifier isRevokable() {\r\n        require(block.timestamp >= revokeTimeNeeded);\r\n        require(state == State.investment);\r\n        _;\r\n    }\r\n\r\n    modifier isRevoked() {\r\n        require(state == State.revoked);\r\n        _;\r\n    }\r\n\r\n    /** @dev Constructor.\r\n      * @param _requestedAmount Requested credit amount (in wei).\r\n      * @param _requestedRepayments Requested number of repayments.\r\n      * @param _interest Credit interest.\r\n      * @param _description Credit description.\r\n      */\r\n    constructor(\r\n        uint _requestedAmount,\r\n        uint _requestedRepayments,\r\n        uint _interest,\r\n        bytes32 _description\r\n    ) public {\r\n        /** Set the borrower of the contract to the tx.origin\r\n          * We are using tx.origin, because the contract is going to be published\r\n          * by the main contract and msg.sender will break our logic.\r\n        */\r\n        borrower = address(uint160(tx.origin)); // Convert to address payable\r\n\r\n        // Set the interest for the credit.\r\n        interest = _interest;\r\n\r\n        // Set the requested amount.\r\n        requestedAmount = _requestedAmount;\r\n\r\n        // Set the requested repayments.\r\n        requestedRepayments = _requestedRepayments;\r\n\r\n        /** Set the remaining repayments.\r\n          * Initially this is equal to the requested repayments.\r\n          */\r\n        remainingRepayments = _requestedRepayments;\r\n\r\n        /** Calculate the amount to be returned by the borrower.\r\n          * At this point this is the addition of the requested amount and the interest.\r\n          */\r\n        returnAmount = requestedAmount.add(interest);\r\n\r\n        /** Calculating the repayment installment.\r\n          * We divide the amount to be returned by the requested repayments count to get it.\r\n          */\r\n        repaymentInstallment = returnAmount.div(requestedRepayments);\r\n\r\n        // Set the credit description.\r\n        description = _description;\r\n\r\n        // Set the initialization date.\r\n        requestedDate = block.timestamp;\r\n\r\n        // Set initial state\r\n        state = State.investment;\r\n\r\n        // Log credit initialization.\r\n        emit LogCreditInitialized(borrower, block.timestamp);\r\n    }\r\n\r\n    /** @dev Get current balance.\r\n      * @return uint256 Current contract balance.\r\n      */\r\n    function getBalance() public view returns (uint256) {\r\n        return address(this).balance;\r\n    }\r\n\r\n    /** @dev Invest function.\r\n      * Provides functionality for person to invest in someone's credit,\r\n      * incentivised by the return of interest.\r\n      */\r\n    function invest() public canInvest payable {\r\n        // Initialize a memory variable for the extra money that may have been sent.\r\n        uint extraMoney = 0;\r\n\r\n        // Check if contract balance is reached the requested amount.\r\n        if (address(this).balance >= requestedAmount) {\r\n            // Calculate the extra money that may have been sent.\r\n            extraMoney = address(this).balance.sub(requestedAmount);\r\n\r\n            // Assert the calculations\r\n            assert(requestedAmount == address(this).balance.sub(extraMoney));\r\n\r\n            // Assert for possible underflow / overflow\r\n            assert(extraMoney <= msg.value);\r\n\r\n            // Check if extra money is greater than 0 wei.\r\n            if (extraMoney > 0) {\r\n                // Return the extra money to the sender.\r\n                address(uint160(msg.sender)).transfer(extraMoney);\r\n\r\n                // Log change returned.\r\n                emit LogLenderChangeReturned(msg.sender, extraMoney, block.timestamp);\r\n            }\r\n\r\n            // Set the contract state to repayment.\r\n            state = State.repayment;\r\n\r\n            // Log state change.\r\n            emit LogCreditStateChanged(state, block.timestamp);\r\n        }\r\n\r\n        /** Add the investor to the lenders mapping.\r\n          * So that we know they invested in this contract.\r\n          */\r\n        lenders[msg.sender] = true;\r\n\r\n        // Increment the lenders count.\r\n        lendersCount++;\r\n\r\n        // Add the amount invested to the amount mapping.\r\n        lendersInvestedAmount[msg.sender] = lendersInvestedAmount[msg.sender].add(msg.value.sub(extraMoney));\r\n\r\n        // Log lender invested amount.\r\n        emit LogLenderInvestment(msg.sender, msg.value.sub(extraMoney), block.timestamp);\r\n    }\r\n\r\n    /** @dev Repayment function.\r\n      * Allows borrower to make repayment installments.\r\n      */\r\n    function repay() public onlyBorrower canRepay payable {\r\n        // The remaining repayments should be greater than 0 to continue.\r\n        require(remainingRepayments > 0);\r\n\r\n        // The value sent should be greater than the repayment installment.\r\n        require(msg.value >= repaymentInstallment);\r\n\r\n        /** Assert that the amount to be returned is greater\r\n          * than the sum of repayments made until now.\r\n          * Otherwise the credit is already repaid.\r\n          */\r\n        assert(repaidAmount < returnAmount);\r\n\r\n        // Decrement the remaining repayments.\r\n        remainingRepayments--;\r\n\r\n        // Update last repayment date.\r\n        lastRepaymentDate = block.timestamp;\r\n\r\n        // Initialize a memory variable for the extra money that may have been sent.\r\n        uint extraMoney = 0;\r\n\r\n        /** Check if the value (in wei) that is being sent is greater than the repayment installment.\r\n          * In this case we should return the change to the msg.sender.\r\n          */\r\n        if (msg.value > repaymentInstallment) {\r\n            // Calculate the extra money being sent in the transaction.\r\n            extraMoney = msg.value.sub(repaymentInstallment);\r\n\r\n            // Assert the calculations.\r\n            assert(repaymentInstallment == msg.value.sub(extraMoney));\r\n\r\n            // Assert for underflow.\r\n            assert(extraMoney <= msg.value);\r\n\r\n            // Return the change/extra money to the msg.sender.\r\n            msg.sender.transfer(extraMoney);\r\n\r\n            // Log the return of the extra money.\r\n            emit LogBorrowerChangeReturned(msg.sender, extraMoney, block.timestamp);\r\n        }\r\n\r\n        // Log borrower installment received.\r\n        emit LogBorrowerRepaymentInstallment(msg.sender, msg.value.sub(extraMoney), block.timestamp);\r\n\r\n        // Add the repayment installment amount to the total repaid amount.\r\n        repaidAmount = repaidAmount.add(msg.value.sub(extraMoney));\r\n\r\n        // Check the repaid amount reached the amount to be returned.\r\n        if (repaidAmount == returnAmount) {\r\n            // Log credit repaid.\r\n            emit LogBorrowerRepaymentFinished(msg.sender, block.timestamp);\r\n\r\n            // Set the credit state to \"returning interests\".\r\n            state = State.interestReturns;\r\n\r\n            // Log state change.\r\n            emit LogCreditStateChanged(state, block.timestamp);\r\n        }\r\n    }\r\n\r\n    /** @dev Withdraw function.\r\n      * It can only be executed while contract is in active state.\r\n      * It is only accessible to the borrower.\r\n      * It is only accessible if the needed amount is gathered in the contract.\r\n      * It can only be executed once.\r\n      * Transfers the gathered amount to the borrower.\r\n      */\r\n    function withdraw() public isActive onlyBorrower canWithdraw isNotFraud {\r\n        // Set the state to repayment so we can avoid reentrancy.\r\n        state = State.repayment;\r\n\r\n        // Log state change.\r\n        emit LogCreditStateChanged(state, block.timestamp);\r\n\r\n        // Log borrower withdrawal.\r\n        emit LogBorrowerWithdrawal(msg.sender, address(this).balance, block.timestamp);\r\n\r\n        // Transfer the gathered amount to the credit borrower.\r\n        borrower.transfer(address(this).balance);\r\n    }\r\n\r\n    /** @dev Request interest function.\r\n      * It can only be executed while contract is in active state.\r\n      * It is only accessible to lenders.\r\n      * It is only accessible if lender funded 1 or more wei.\r\n      * It can only be executed once.\r\n      * Transfers the lended amount + interest to the lender.\r\n      */\r\n    function requestInterest() public isActive onlyLender canAskForInterest {\r\n        // Calculate the amount to be returned to lender.\r\n        uint lenderReturnAmount = returnAmount.div(lendersCount);\r\n\r\n        // Assert the contract has enough balance to pay the lender.\r\n        assert(address(this).balance >= lenderReturnAmount);\r\n\r\n        // Transfer the return amount with interest to the lender.\r\n        address(uint160(msg.sender)).transfer(lenderReturnAmount);\r\n\r\n        // Log the transfer to lender.\r\n        emit LogLenderWithdrawal(msg.sender, lenderReturnAmount, block.timestamp);\r\n\r\n        // Check if the contract balance is drawn.\r\n        if (address(this).balance == 0) {\r\n            // Set the active state to false.\r\n            active = false;\r\n\r\n            // Log active state change.\r\n            emit LogCreditStateActiveChanged(active, block.timestamp);\r\n\r\n            // Set the contract stage to expired e.g. its lifespan is over.\r\n            state = State.expired;\r\n\r\n            // Log state change.\r\n            emit LogCreditStateChanged(state, block.timestamp);\r\n        }\r\n    }\r\n\r\n    /** @dev Function to get the whole credit information. */\r\n    function getCreditInfo() public view returns (\r\n        address,\r\n        bytes32,\r\n        uint,\r\n        uint,\r\n        uint,\r\n        uint,\r\n        uint,\r\n        uint,\r\n        State,\r\n        bool,\r\n        uint\r\n    ) {\r\n        return (\r\n            borrower,\r\n            description,\r\n            requestedAmount,\r\n            requestedRepayments,\r\n            repaymentInstallment,\r\n            remainingRepayments,\r\n            interest,\r\n            returnAmount,\r\n            state,\r\n            active,\r\n            address(this).balance\r\n        );\r\n    }\r\n\r\n    /** @dev Function for revoking the credit. */\r\n    function revokeVote() public isActive isRevokable onlyLender {\r\n        // Require only one vote per lender.\r\n        require(revokeVoters[msg.sender] == false);\r\n\r\n        // Increment the revokeVotes.\r\n        revokeVotes++;\r\n\r\n        // Note the lender has voted.\r\n        revokeVoters[msg.sender] = true;\r\n\r\n        // Log lender vote for revoking the credit contract.\r\n        emit LogLenderVoteForRevoking(msg.sender, block.timestamp);\r\n\r\n        // If the consensus is reached.\r\n        if (lendersCount == revokeVotes) {\r\n            // Call internal revoke function.\r\n            revoke();\r\n        }\r\n    }\r\n\r\n    /** @dev Revoke internal function. */\r\n    function revoke() internal {\r\n        // Change the state to revoked.\r\n        state = State.revoked;\r\n\r\n        // Log credit revoked.\r\n        emit LogCreditStateChanged(state, block.timestamp);\r\n    }\r\n\r\n    /** @dev Function for refunding people. */\r\n    function refund() public isActive onlyLender isRevoked {\r\n        // assert the contract has enough balance.\r\n        assert(address(this).balance >= lendersInvestedAmount[msg.sender]);\r\n\r\n        // Transfer the return amount with interest to the lender.\r\n        address(uint160(msg.sender)).transfer(lendersInvestedAmount[msg.sender]);\r\n\r\n        // Log the transfer to lender.\r\n        emit LogLenderRefunded(msg.sender, lendersInvestedAmount[msg.sender], block.timestamp);\r\n\r\n        // Check if the contract balance is drawn.\r\n        if (address(this).balance == 0) {\r\n            // Set the active state to false.\r\n            active = false;\r\n\r\n            // Log active status change.\r\n            emit LogCreditStateActiveChanged(active, block.timestamp);\r\n\r\n            // Set the contract stage to expired e.g. its lifespan is over.\r\n            state = State.expired;\r\n\r\n            // Log state change.\r\n            emit LogCreditStateChanged(state, block.timestamp);\r\n        }\r\n    }\r\n\r\n    /** @dev Function for voting the borrower as fraudster. */\r\n    function fraudVote() public isActive onlyLender returns (bool) {\r\n        // A lender could vote only once.\r\n        require(fraudVoters[msg.sender] == false);\r\n\r\n        // Increment fraudVotes count.\r\n        fraudVotes++;\r\n\r\n        // Note the lender has voted.\r\n        fraudVoters[msg.sender] = true;  // Fixed: Changed == to =\r\n\r\n        // Log lenders vote for fraud\r\n        emit LogLenderVoteForFraud(msg.sender, block.timestamp);\r\n\r\n        // Check if consensus is reached.\r\n        if (lendersCount == fraudVotes) {\r\n            // Invoke fraud function.\r\n            return fraud();\r\n        }\r\n        return true;\r\n    }\r\n\r\n    /** @dev Fraud function\r\n      * @return bool indicating if the fraud status was set successfully\r\n      * calls the owner contract and marks the borrower as fraudster.\r\n      */\r\n    function fraud() internal returns (bool) {\r\n    // Create the function signature for setFraudStatus\r\n        bytes memory payload = abi.encodeWithSignature(\"setFraudStatus(address)\", borrower);\r\n        \r\n        // Use the owner address directly (assuming owner is a state variable)\r\n        (bool success, ) = owner.call(payload);\r\n\r\n        // Set the state to fraud if the call was successful\r\n        if (success) {\r\n            state = State.fraud;\r\n        }\r\n\r\n        // Log user marked as fraud\r\n        emit LogBorrowerIsFraud(borrower, success, block.timestamp);\r\n\r\n        return success;\r\n    }\r\n\r\n    /** @dev Change state function.\r\n      * @param _state New state.\r\n      * Only accessible to the owner of the contract.\r\n      * Changes the state of the contract.\r\n      */\r\n    function changeState(State _state) external onlyOwner returns (uint) {\r\n        state = _state;\r\n\r\n        // Log state change.\r\n        emit LogCreditStateChanged(state, block.timestamp);\r\n\r\n        return uint(state);\r\n    }\r\n\r\n    /** @dev Toggle active state function.\r\n      * Only accessible to the owner of the contract.\r\n      * Toggles the active state of the contract.\r\n      * @return bool\r\n      */\r\n    function toggleActive() external onlyOwner returns (bool) {\r\n        active = !active;\r\n\r\n        // Log active status change.\r\n        emit LogCreditStateActiveChanged(active, block.timestamp);\r\n\r\n        return active;\r\n    }\r\n}\r\n\r\n",
  "sourcePath": "E:\\CollegeLecturespdf\\Sem-7\\BlockChain\\Project\\p2p-lending\\smart-contracts\\contracts\\Credit.sol",
  "compiler": {
    "name": "solc",
    "version": "0.5.16+commit.9c3226ce.Emscripten.clang"
  },
  "schemaVersion": "3.4.16",
  "updatedAt": "2024-11-04T08:55:47.500Z",
  "networkType": "ethereum",
  "devdoc": {
    "methods": {
      "changeState(uint8)": {
        "details": "Change state function.",
        "params": {
          "_state": "New state. Only accessible to the owner of the contract. Changes the state of the contract."
        }
      },
      "constructor": {
        "details": "Constructor.",
        "params": {
          "_description": "Credit description.",
          "_interest": "Credit interest.",
          "_requestedAmount": "Requested credit amount (in wei).",
          "_requestedRepayments": "Requested number of repayments."
        }
      },
      "fraudVote()": {
        "details": "Function for voting the borrower as fraudster. "
      },
      "getBalance()": {
        "details": "Get current balance.",
        "return": "uint256 Current contract balance."
      },
      "getCreditInfo()": {
        "details": "Function to get the whole credit information. "
      },
      "invest()": {
        "details": "Invest function. Provides functionality for person to invest in someone's credit, incentivised by the return of interest."
      },
      "refund()": {
        "details": "Function for refunding people. "
      },
      "repay()": {
        "details": "Repayment function. Allows borrower to make repayment installments."
      },
      "requestInterest()": {
        "details": "Request interest function. It can only be executed while contract is in active state. It is only accessible to lenders. It is only accessible if lender funded 1 or more wei. It can only be executed once. Transfers the lended amount + interest to the lender."
      },
      "revokeVote()": {
        "details": "Function for revoking the credit. "
      },
      "toggleActive()": {
        "details": "Toggle active state function. Only accessible to the owner of the contract. Toggles the active state of the contract.",
        "return": "bool"
      },
      "withdraw()": {
        "details": "Withdraw function. It can only be executed while contract is in active state. It is only accessible to the borrower. It is only accessible if the needed amount is gathered in the contract. It can only be executed once. Transfers the gathered amount to the borrower."
      }
    },
    "title": "Credit contract. Inherits the Ownable and Destructible contracts."
  },
  "userdoc": {
    "methods": {}
  }
}