{
  "contractName": "Ownable",
  "abi": [
    {
      "inputs": [],
      "payable": false,
      "stateMutability": "nonpayable",
      "type": "constructor"
    },
    {
      "anonymous": false,
      "inputs": [
        {
          "indexed": true,
          "internalType": "address",
          "name": "_currentOwner",
          "type": "address"
        },
        {
          "indexed": true,
          "internalType": "address",
          "name": "_newOwner",
          "type": "address"
        }
      ],
      "name": "LogOwnershipTransfered",
      "type": "event"
    },
    {
      "constant": true,
      "inputs": [],
      "name": "owner",
      "outputs": [
        {
          "internalType": "address",
          "name": "",
          "type": "address"
        }
      ],
      "payable": false,
      "stateMutability": "view",
      "type": "function"
    }
  ],
  "bytecode": "0x608060405234801561001057600080fd5b50336000806101000a81548173ffffffffffffffffffffffffffffffffffffffff021916908373ffffffffffffffffffffffffffffffffffffffff16021790555060cf8061005f6000396000f3fe6080604052348015600f57600080fd5b506004361060285760003560e01c80638da5cb5b14602d575b600080fd5b60336075565b604051808273ffffffffffffffffffffffffffffffffffffffff1673ffffffffffffffffffffffffffffffffffffffff16815260200191505060405180910390f35b6000809054906101000a900473ffffffffffffffffffffffffffffffffffffffff168156fea265627a7a72315820069f2c06aae59d8ab3645c424fd36e914ba5b73edbc7f4389b76f2daa110e88564736f6c63430005100032",
  "source": "pragma solidity ^0.5.0;\r\n\r\ncontract Ownable {\r\n    address public owner;\r\n\r\n    event LogOwnershipTransfered(address indexed _currentOwner, address indexed _newOwner);\r\n\r\n    modifier onlyOwner() {\r\n        require(msg.sender == owner);\r\n        _;\r\n    }\r\n\r\n    constructor() public {\r\n        owner = msg.sender;\r\n    }\r\n\r\n    // @dev - The ownership shouldn't be transferrable. Otherwise it will mess up the members logic.\r\n    /* function transferOwnership(address _newOwner) public onlyOwner {\r\n         owner = _newOwner;\r\n         LogOwnershipTransfered(msg.sender, _newOwner);\r\n     } */\r\n}\r\n",
  "sourcePath": "E:\\CollegeLecturespdf\\Sem-7\\BlockChain\\Project\\p2p-lending\\smart-contracts\\contracts\\common\\Ownable.sol",
  "compiler": {
    "name": "solc",
    "version": "0.5.16+commit.9c3226ce.Emscripten.clang"
  },
  "schemaVersion": "3.4.16",
  "updatedAt": "2024-11-04T08:55:47.483Z",
  "networkType": "ethereum",
  "devdoc": {
    "methods": {}
  },
  "userdoc": {
    "methods": {}
  }
}