{
  "contractName": "PeerToPeerLending",
  "abi": [
    {
      "inputs": [],
      "payable": false,
      "stateMutability": "nonpayable",
      "type": "constructor"
    },
    {
      "anonymous": false,
      "inputs": [
        {
          "indexed": true,
          "internalType": "address",
          "name": "_address",
          "type": "address"
        },
        {
          "indexed": true,
          "internalType": "bool",
          "name": "active",
          "type": "bool"
        },
        {
          "indexed": true,
          "internalType": "uint256",
          "name": "timestamp",
          "type": "uint256"
        }
      ],
      "name": "LogCreditActiveChanged",
      "type": "event"
    },
    {
      "anonymous": false,
      "inputs": [
        {
          "indexed": true,
          "internalType": "address",
          "name": "_address",
          "type": "address"
        },
        {
          "indexed": true,
          "internalType": "address",
          "name": "_borrower",
          "type": "address"
        },
        {
          "indexed": true,
          "internalType": "uint256",
          "name": "timestamp",
          "type": "uint256"
        }
      ],
      "name": "LogCreditCreated",
      "type": "event"
    },
    {
      "anonymous": false,
      "inputs": [
        {
          "indexed": true,
          "internalType": "address",
          "name": "_address",
          "type": "address"
        },
        {
          "indexed": true,
          "internalType": "enum Credit.State",
          "name": "state",
          "type": "uint8"
        },
        {
          "indexed": true,
          "internalType": "uint256",
          "name": "timestamp",
          "type": "uint256"
        }
      ],
      "name": "LogCreditStateChanged",
      "type": "event"
    },
    {
      "anonymous": false,
      "inputs": [
        {
          "indexed": true,
          "internalType": "address",
          "name": "_currentOwner",
          "type": "address"
        },
        {
          "indexed": true,
          "internalType": "address",
          "name": "_newOwner",
          "type": "address"
        }
      ],
      "name": "LogOwnershipTransfered",
      "type": "event"
    },
    {
      "anonymous": false,
      "inputs": [
        {
          "indexed": true,
          "internalType": "address",
          "name": "_address",
          "type": "address"
        },
        {
          "indexed": false,
          "internalType": "bool",
          "name": "fraudStatus",
          "type": "bool"
        },
        {
          "indexed": false,
          "internalType": "uint256",
          "name": "timestamp",
          "type": "uint256"
        }
      ],
      "name": "LogUserSetFraud",
      "type": "event"
    },
    {
      "constant": true,
      "inputs": [
        {
          "internalType": "uint256",
          "name": "",
          "type": "uint256"
        }
      ],
      "name": "credits",
      "outputs": [
        {
          "internalType": "address",
          "name": "",
          "type": "address"
        }
      ],
      "payable": false,
      "stateMutability": "view",
      "type": "function"
    },
    {
      "constant": false,
      "inputs": [],
      "name": "destroy",
      "outputs": [],
      "payable": false,
      "stateMutability": "nonpayable",
      "type": "function"
    },
    {
      "constant": false,
      "inputs": [
        {
          "internalType": "address",
          "name": "_recipient",
          "type": "address"
        }
      ],
      "name": "destroyAndSend",
      "outputs": [],
      "payable": false,
      "stateMutability": "nonpayable",
      "type": "function"
    },
    {
      "constant": true,
      "inputs": [],
      "name": "owner",
      "outputs": [
        {
          "internalType": "address",
          "name": "",
          "type": "address"
        }
      ],
      "payable": false,
      "stateMutability": "view",
      "type": "function"
    },
    {
      "constant": true,
      "inputs": [
        {
          "internalType": "address",
          "name": "",
          "type": "address"
        }
      ],
      "name": "users",
      "outputs": [
        {
          "internalType": "bool",
          "name": "credited",
          "type": "bool"
        },
        {
          "internalType": "address",
          "name": "activeCredit",
          "type": "address"
        },
        {
          "internalType": "bool",
          "name": "fraudStatus",
          "type": "bool"
        }
      ],
      "payable": false,
      "stateMutability": "view",
      "type": "function"
    },
    {
      "constant": false,
      "inputs": [
        {
          "internalType": "uint256",
          "name": "requestedAmount",
          "type": "uint256"
        },
        {
          "internalType": "uint256",
          "name": "repaymentsCount",
          "type": "uint256"
        },
        {
          "internalType": "uint256",
          "name": "interest",
          "type": "uint256"
        },
        {
          "internalType": "bytes32",
          "name": "creditDescription",
          "type": "bytes32"
        }
      ],
      "name": "applyForCredit",
      "outputs": [
        {
          "internalType": "address",
          "name": "_credit",
          "type": "address"
        }
      ],
      "payable": false,
      "stateMutability": "nonpayable",
      "type": "function"
    },
    {
      "constant": true,
      "inputs": [],
      "name": "getCredits",
      "outputs": [
        {
          "internalType": "address[]",
          "name": "",
          "type": "address[]"
        }
      ],
      "payable": false,
      "stateMutability": "view",
      "type": "function"
    },
    {
      "constant": true,
      "inputs": [],
      "name": "getUserCredits",
      "outputs": [
        {
          "internalType": "address[]",
          "name": "",
          "type": "address[]"
        }
      ],
      "payable": false,
      "stateMutability": "view",
      "type": "function"
    },
    {
      "constant": false,
      "inputs": [
        {
          "internalType": "address",
          "name": "_borrower",
          "type": "address"
        }
      ],
      "name": "setFraudStatus",
      "outputs": [
        {
          "internalType": "bool",
          "name": "",
          "type": "bool"
        }
      ],
      "payable": false,
      "stateMutability": "nonpayable",
      "type": "function"
    },
    {
      "constant": false,
      "inputs": [
        {
          "internalType": "contract Credit",
          "name": "_credit",
          "type": "address"
        },
        {
          "internalType": "enum Credit.State",
          "name": "state",
          "type": "uint8"
        }
      ],
      "name": "changeCreditState",
      "outputs": [],
      "payable": false,
      "stateMutability": "nonpayable",
      "type": "function"
    },
    {
      "constant": false,
      "inputs": [
        {
          "internalType": "contract Credit",
          "name": "_credit",
          "type": "address"
        }
      ],
      "name": "toggleCreditActiveState",
      "outputs": [],
      "payable": false,
      "stateMutability": "nonpayable",
      "type": "function"
    }
  ],
  "bytecode": "0x608060405234801561001057600080fd5b50336000806101000a81548173ffffffffffffffffffffffffffffffffffffffff021916908373ffffffffffffffffffffffffffffffffffffffff160217905550613559806100606000396000f3fe608060405234801561001057600080fd5b50600436106100a95760003560e01c80638da5cb5b116100715780638da5cb5b14610228578063a87430ba14610272578063bb9e42471461030c578063ebb5d8ed14610368578063f5074f41146103f4578063fa838e5414610438576100a9565b8063036a1c22146100ae5780632092cb331461011c578063725172aa1461017b578063823a71af146101bf57806383197ef01461021e575b600080fd5b6100da600480360360208110156100c457600080fd5b8101908080359060200190929190505050610489565b604051808273ffffffffffffffffffffffffffffffffffffffff1673ffffffffffffffffffffffffffffffffffffffff16815260200191505060405180910390f35b6101246104c5565b6040518080602001828103825283818151815260200191508051906020019060200280838360005b8381101561016757808201518184015260208101905061014c565b505050509050019250505060405180910390f35b6101bd6004803603602081101561019157600080fd5b81019080803573ffffffffffffffffffffffffffffffffffffffff169060200190929190505050610593565b005b6101c76106c4565b6040518080602001828103825283818151815260200191508051906020019060200280838360005b8381101561020a5780820151818401526020810190506101ef565b505050509050019250505060405180910390f35b610226610752565b005b6102306107e5565b604051808273ffffffffffffffffffffffffffffffffffffffff1673ffffffffffffffffffffffffffffffffffffffff16815260200191505060405180910390f35b6102b46004803603602081101561028857600080fd5b81019080803573ffffffffffffffffffffffffffffffffffffffff16906020019092919050505061080a565b60405180841515151581526020018373ffffffffffffffffffffffffffffffffffffffff1673ffffffffffffffffffffffffffffffffffffffff16815260200182151515158152602001935050505060405180910390f35b61034e6004803603602081101561032257600080fd5b81019080803573ffffffffffffffffffffffffffffffffffffffff16906020019092919050505061086e565b604051808215151515815260200191505060405180910390f35b6103b26004803603608081101561037e57600080fd5b81019080803590602001909291908035906020019092919080359060200190929190803590602001909291905050506109ca565b604051808273ffffffffffffffffffffffffffffffffffffffff1673ffffffffffffffffffffffffffffffffffffffff16815260200191505060405180910390f35b6104366004803603602081101561040a57600080fd5b81019080803573ffffffffffffffffffffffffffffffffffffffff169060200190929190505050610eff565b005b6104876004803603604081101561044e57600080fd5b81019080803573ffffffffffffffffffffffffffffffffffffffff169060200190929190803560ff169060200190929190505050610f71565b005b6002818154811061049657fe5b906000526020600020016000915054906101000a900473ffffffffffffffffffffffffffffffffffffffff1681565b6060600160003373ffffffffffffffffffffffffffffffffffffffff1673ffffffffffffffffffffffffffffffffffffffff16815260200190815260200160002060010180548060200260200160405190810160405280929190818152602001828054801561058957602002820191906000526020600020905b8160009054906101000a900473ffffffffffffffffffffffffffffffffffffffff1673ffffffffffffffffffffffffffffffffffffffff168152602001906001019080831161053f575b5050505050905090565b6000809054906101000a900473ffffffffffffffffffffffffffffffffffffffff1673ffffffffffffffffffffffffffffffffffffffff163373ffffffffffffffffffffffffffffffffffffffff16146105ec57600080fd5b600081905060008173ffffffffffffffffffffffffffffffffffffffff166329c68dc16040518163ffffffff1660e01b8152600401602060405180830381600087803b15801561063b57600080fd5b505af115801561064f573d6000803e3d6000fd5b505050506040513d602081101561066557600080fd5b81019080805190602001909291905050509050428115158373ffffffffffffffffffffffffffffffffffffffff167f25270acf0eab637903a9cd906e32d2ac17ce44db6c743ba5812f2924e84ff8d660405160405180910390a4505050565b6060600280548060200260200160405190810160405280929190818152602001828054801561074857602002820191906000526020600020905b8160009054906101000a900473ffffffffffffffffffffffffffffffffffffffff1673ffffffffffffffffffffffffffffffffffffffff16815260200190600101908083116106fe575b5050505050905090565b6000809054906101000a900473ffffffffffffffffffffffffffffffffffffffff1673ffffffffffffffffffffffffffffffffffffffff163373ffffffffffffffffffffffffffffffffffffffff16146107ab57600080fd5b6000809054906101000a900473ffffffffffffffffffffffffffffffffffffffff1673ffffffffffffffffffffffffffffffffffffffff16ff5b6000809054906101000a900473ffffffffffffffffffffffffffffffffffffffff1681565b60016020528060005260406000206000915090508060000160009054906101000a900460ff16908060000160019054906101000a900473ffffffffffffffffffffffffffffffffffffffff16908060000160159054906101000a900460ff16905083565b600060018060008473ffffffffffffffffffffffffffffffffffffffff1673ffffffffffffffffffffffffffffffffffffffff16815260200190815260200160002060000160156101000a81548160ff0219169083151502179055508173ffffffffffffffffffffffffffffffffffffffff167fbafb199a9909a7be73ceeaf6193dc9ea119ef469120d998d5f550140c0b13b54600160008573ffffffffffffffffffffffffffffffffffffffff1673ffffffffffffffffffffffffffffffffffffffff16815260200190815260200160002060000160159054906101000a900460ff164260405180831515151581526020018281526020019250505060405180910390a2600160008373ffffffffffffffffffffffffffffffffffffffff1673ffffffffffffffffffffffffffffffffffffffff16815260200190815260200160002060000160159054906101000a900460ff169050919050565b6000801515600160003373ffffffffffffffffffffffffffffffffffffffff1673ffffffffffffffffffffffffffffffffffffffff16815260200190815260200160002060000160009054906101000a900460ff16151514610a94576040517f08c379a00000000000000000000000000000000000000000000000000000000081526004018080602001828103825260168152602001807f5573657220616c72656164792063726564697465642e0000000000000000000081525060200191505060405180910390fd5b60001515600160003373ffffffffffffffffffffffffffffffffffffffff1673ffffffffffffffffffffffffffffffffffffffff16815260200190815260200160002060000160159054906101000a900460ff16151514610b5d576040517f08c379a000000000000000000000000000000000000000000000000000000000815260040180806020018281038252601d8152602001807f55736572206973206d61726b6564206173206672617564756c656e742e00000081525060200191505060405180910390fd5b600073ffffffffffffffffffffffffffffffffffffffff16600160003373ffffffffffffffffffffffffffffffffffffffff1673ffffffffffffffffffffffffffffffffffffffff16815260200190815260200160002060000160019054906101000a900473ffffffffffffffffffffffffffffffffffffffff1673ffffffffffffffffffffffffffffffffffffffff1614610c61576040517f08c379a000000000000000000000000000000000000000000000000000000000815260040180806020018281038252601a8152602001807f557365722068617320616e20616374697665206372656469742e00000000000081525060200191505060405180910390fd5b60018060003373ffffffffffffffffffffffffffffffffffffffff1673ffffffffffffffffffffffffffffffffffffffff16815260200190815260200160002060000160006101000a81548160ff021916908315150217905550600085858585604051610ccd906110c1565b80858152602001848152602001838152602001828152602001945050505050604051809103906000f080158015610d08573d6000803e3d6000fd5b50905080600160003373ffffffffffffffffffffffffffffffffffffffff1673ffffffffffffffffffffffffffffffffffffffff16815260200190815260200160002060000160016101000a81548173ffffffffffffffffffffffffffffffffffffffff021916908373ffffffffffffffffffffffffffffffffffffffff16021790555060028190806001815401808255809150509060018203906000526020600020016000909192909190916101000a81548173ffffffffffffffffffffffffffffffffffffffff021916908373ffffffffffffffffffffffffffffffffffffffff16021790555050600160003373ffffffffffffffffffffffffffffffffffffffff1673ffffffffffffffffffffffffffffffffffffffff1681526020019081526020016000206001018190806001815401808255809150509060018203906000526020600020016000909192909190916101000a81548173ffffffffffffffffffffffffffffffffffffffff021916908373ffffffffffffffffffffffffffffffffffffffff16021790555050423373ffffffffffffffffffffffffffffffffffffffff168273ffffffffffffffffffffffffffffffffffffffff167fa0c75b76492543c8eafdc7e35272287bd6f229dcf0f6c22429343044718c510860405160405180910390a480915050949350505050565b6000809054906101000a900473ffffffffffffffffffffffffffffffffffffffff1673ffffffffffffffffffffffffffffffffffffffff163373ffffffffffffffffffffffffffffffffffffffff1614610f5857600080fd5b8073ffffffffffffffffffffffffffffffffffffffff16ff5b6000809054906101000a900473ffffffffffffffffffffffffffffffffffffffff1673ffffffffffffffffffffffffffffffffffffffff163373ffffffffffffffffffffffffffffffffffffffff1614610fca57600080fd5b60008290508073ffffffffffffffffffffffffffffffffffffffff1663268f1153836040518263ffffffff1660e01b81526004018082600581111561100b57fe5b60ff168152602001915050602060405180830381600087803b15801561103057600080fd5b505af1158015611044573d6000803e3d6000fd5b505050506040513d602081101561105a57600080fd5b8101908080519060200190929190505050504282600581111561107957fe5b8273ffffffffffffffffffffffffffffffffffffffff167f9ae5127f6d87e374b5901ce23a9467e504811c54c03dda8741ad44a35a36146660405160405180910390a4505050565b612456806110cf8339019056fe60806040526001600d60006101000a81548160ff021916908315150217905550600060105560006011556001420160135560006014553480156200004257600080fd5b506040516200245638038062002456833981810160405260808110156200006857600080fd5b8101908080519060200190929190805190602001909291908051906020019092919080519060200190929190505050336000806101000a81548173ffffffffffffffffffffffffffffffffffffffff021916908373ffffffffffffffffffffffffffffffffffffffff16021790555032600160006101000a81548173ffffffffffffffffffffffffffffffffffffffff021916908373ffffffffffffffffffffffffffffffffffffffff16021790555081600681905550836003819055508260078190555082600881905550620001526006546003546200021f60201b62001ec01790919060201c565b600481905550620001766007546004546200023c60201b620021a21790919060201c565b60098190555080600c8190555042600a819055506000600d60016101000a81548160ff02191690836005811115620001aa57fe5b021790555042600160009054906101000a900473ffffffffffffffffffffffffffffffffffffffff1673ffffffffffffffffffffffffffffffffffffffff167ff9f75c99c0e3522cd19ffc66fd6c94989a3f0821d37d5c5bb176aab904c6335d60405160405180910390a35050505062000256565b6000808284019050838110156200023257fe5b8091505092915050565b6000808284816200024957fe5b0490508091505092915050565b6121f080620002666000396000f3fe6080604052600436106102045760003560e01c806383197ef011610118578063d85da7b6116100a0578063f06817cf1161006f578063f06817cf146107c0578063f35eeaef1461086f578063f5074f411461089a578063f98b8028146108eb578063fbaa78f31461091657610204565b8063d85da7b614610745578063e8b5e51f14610774578063e8bb52991461077e578063efd475ab146107a957610204565b8063b01a2adf116100e7578063b01a2adf146105e4578063b99bea241461064d578063c19d93fb14610678578063c392f766146106b1578063d10f6630146106dc57610204565b806383197ef0146105205780638da5cb5b146105375780639366b60d1461058e5780639381ab25146105b957610204565b806343c14b221161019b5780637284e4161161016a5780637284e4161461041d57806376adf71e1461044857806378860268146104735780637c03afcd1461049e5780637df1f1b9146104c957610204565b806343c14b221461039957806347505b5d146103b057806348c21947146103db578063590e1ae31461040657610204565b806328fd10d7116101d757806328fd10d7146102e057806329c68dc1146103495780633ccfd60b14610378578063402d88831461038f57610204565b806302fb0c5e1461020957806312065fe014610238578063162fce6914610263578063268f11531461028e575b600080fd5b34801561021557600080fd5b5061021e61097b565b604051808215151515815260200191505060405180910390f35b34801561024457600080fd5b5061024d61098e565b6040518082815260200191505060405180910390f35b34801561026f57600080fd5b50610278610996565b6040518082815260200191505060405180910390f35b34801561029a57600080fd5b506102ca600480360360208110156102b157600080fd5b81019080803560ff16906020019092919050505061099c565b6040518082815260200191505060405180910390f35b3480156102ec57600080fd5b5061032f6004803603602081101561030357600080fd5b81019080803573ffffffffffffffffffffffffffffffffffffffff169060200190929190505050610a84565b604051808215151515815260200191505060405180910390f35b34801561035557600080fd5b5061035e610aa4565b604051808215151515815260200191505060405180910390f35b34801561038457600080fd5b5061038d610b7d565b005b610397610d54565b005b3480156103a557600080fd5b506103ae611043565b005b3480156103bc57600080fd5b506103c5611223565b6040518082815260200191505060405180910390f35b3480156103e757600080fd5b506103f0611229565b6040518082815260200191505060405180910390f35b34801561041257600080fd5b5061041b61122f565b005b34801561042957600080fd5b50610432611503565b6040518082815260200191505060405180910390f35b34801561045457600080fd5b5061045d611509565b6040518082815260200191505060405180910390f35b34801561047f57600080fd5b5061048861150f565b6040518082815260200191505060405180910390f35b3480156104aa57600080fd5b506104b3611515565b6040518082815260200191505060405180910390f35b3480156104d557600080fd5b506104de61151b565b604051808273ffffffffffffffffffffffffffffffffffffffff1673ffffffffffffffffffffffffffffffffffffffff16815260200191505060405180910390f35b34801561052c57600080fd5b50610535611541565b005b34801561054357600080fd5b5061054c6115d4565b604051808273ffffffffffffffffffffffffffffffffffffffff1673ffffffffffffffffffffffffffffffffffffffff16815260200191505060405180910390f35b34801561059a57600080fd5b506105a36115fa565b6040518082815260200191505060405180910390f35b3480156105c557600080fd5b506105ce611600565b6040518082815260200191505060405180910390f35b3480156105f057600080fd5b506106336004803603602081101561060757600080fd5b81019080803573ffffffffffffffffffffffffffffffffffffffff169060200190929190505050611606565b604051808215151515815260200191505060405180910390f35b34801561065957600080fd5b50610662611626565b6040518082815260200191505060405180910390f35b34801561068457600080fd5b5061068d61162c565b6040518082600581111561069d57fe5b60ff16815260200191505060405180910390f35b3480156106bd57600080fd5b506106c661163f565b6040518082815260200191505060405180910390f35b3480156106e857600080fd5b5061072b600480360360208110156106ff57600080fd5b81019080803573ffffffffffffffffffffffffffffffffffffffff169060200190929190505050611645565b604051808215151515815260200191505060405180910390f35b34801561075157600080fd5b5061075a611665565b604051808215151515815260200191505060405180910390f35b61077c611812565b005b34801561078a57600080fd5b50610793611afe565b6040518082815260200191505060405180910390f35b3480156107b557600080fd5b506107be611b04565b005b3480156107cc57600080fd5b506107d5611d83565b604051808c73ffffffffffffffffffffffffffffffffffffffff1673ffffffffffffffffffffffffffffffffffffffff1681526020018b81526020018a815260200189815260200188815260200187815260200186815260200185815260200184600581111561084157fe5b60ff168152602001831515151581526020018281526020019b50505050505050505050505060405180910390f35b34801561087b57600080fd5b50610884611e13565b6040518082815260200191505060405180910390f35b3480156108a657600080fd5b506108e9600480360360208110156108bd57600080fd5b81019080803573ffffffffffffffffffffffffffffffffffffffff169060200190929190505050611e19565b005b3480156108f757600080fd5b50610900611e8b565b6040518082815260200191505060405180910390f35b34801561092257600080fd5b506109656004803603602081101561093957600080fd5b81019080803573ffffffffffffffffffffffffffffffffffffffff169060200190929190505050611e91565b6040518082815260200191505060405180910390f35b600d60009054906101000a900460ff1681565b600047905090565b60075481565b60008060009054906101000a900473ffffffffffffffffffffffffffffffffffffffff1673ffffffffffffffffffffffffffffffffffffffff163373ffffffffffffffffffffffffffffffffffffffff16146109f757600080fd5b81600d60016101000a81548160ff02191690836005811115610a1557fe5b021790555042600d60019054906101000a900460ff166005811115610a3657fe5b7faaae373901e745122c2e0925ad006227969c6cd190b7d5ea2fb7fdbd1d955b3560405160405180910390a3600d60019054906101000a900460ff166005811115610a7d57fe5b9050919050565b600e6020528060005260406000206000915054906101000a900460ff1681565b60008060009054906101000a900473ffffffffffffffffffffffffffffffffffffffff1673ffffffffffffffffffffffffffffffffffffffff163373ffffffffffffffffffffffffffffffffffffffff1614610aff57600080fd5b600d60009054906101000a900460ff1615600d60006101000a81548160ff02191690831515021790555042600d60009054906101000a900460ff1615157f160914ea27c60aa29a5f3a69d74e6069869de36e38939de1e0a66b921d8623d260405160405180910390a3600d60009054906101000a900460ff16905090565b60011515600d60009054906101000a900460ff16151514610b9d57600080fd5b600160009054906101000a900473ffffffffffffffffffffffffffffffffffffffff1673ffffffffffffffffffffffffffffffffffffffff163373ffffffffffffffffffffffffffffffffffffffff1614610bf757600080fd5b600354471015610c0657600080fd5b600580811115610c1257fe5b600d60019054906101000a900460ff166005811115610c2d57fe5b1415610c3857600080fd5b6001600d60016101000a81548160ff02191690836005811115610c5757fe5b021790555042600d60019054906101000a900460ff166005811115610c7857fe5b7faaae373901e745122c2e0925ad006227969c6cd190b7d5ea2fb7fdbd1d955b3560405160405180910390a342473373ffffffffffffffffffffffffffffffffffffffff167f20734f14d107b526674905e470e35d0a474f9fb996a7bdb034c839c8894524e660405160405180910390a4600160009054906101000a900473ffffffffffffffffffffffffffffffffffffffff1673ffffffffffffffffffffffffffffffffffffffff166108fc479081150290604051600060405180830381858888f19350505050158015610d51573d6000803e3d6000fd5b50565b600160009054906101000a900473ffffffffffffffffffffffffffffffffffffffff1673ffffffffffffffffffffffffffffffffffffffff163373ffffffffffffffffffffffffffffffffffffffff1614610dae57600080fd5b60016005811115610dbb57fe5b600d60019054906101000a900460ff166005811115610dd657fe5b14610de057600080fd5b600060085411610def57600080fd5b600954341015610dfe57600080fd5b60045460055410610e0b57fe5b6008600081548092919060019003919050555042600b819055506000809050600954341115610eff57610e4960095434611ea990919063ffffffff16565b9050610e5e8134611ea990919063ffffffff16565b60095414610e6857fe5b34811115610e7257fe5b3373ffffffffffffffffffffffffffffffffffffffff166108fc829081150290604051600060405180830381858888f19350505050158015610eb8573d6000803e3d6000fd5b5042813373ffffffffffffffffffffffffffffffffffffffff167f5c9874487a2258c6bd6dc39a2cfcf7ea944b50b79d9a7152668779687b2ebd8d60405160405180910390a45b42610f138234611ea990919063ffffffff16565b3373ffffffffffffffffffffffffffffffffffffffff167f350a09487d622378c6efbda255f996387696319f803a2e53eee64f7aa70be85a60405160405180910390a4610f7d610f6c8234611ea990919063ffffffff16565b600554611ec090919063ffffffff16565b600581905550600454600554141561104057423373ffffffffffffffffffffffffffffffffffffffff167f25630de45a38a90cbca3a2eb35a8197e51b56d6d912581711e5e3773fe77cabc60405160405180910390a36002600d60016101000a81548160ff02191690836005811115610ff257fe5b021790555042600d60019054906101000a900460ff16600581111561101357fe5b7faaae373901e745122c2e0925ad006227969c6cd190b7d5ea2fb7fdbd1d955b3560405160405180910390a35b50565b60011515600d60009054906101000a900460ff1615151461106357600080fd5b60135442101561107257600080fd5b6000600581111561107f57fe5b600d60019054906101000a900460ff16600581111561109a57fe5b146110a457600080fd5b60011515600e60003373ffffffffffffffffffffffffffffffffffffffff1673ffffffffffffffffffffffffffffffffffffffff16815260200190815260200160002060009054906101000a900460ff1615151461110157600080fd5b60001515601260003373ffffffffffffffffffffffffffffffffffffffff1673ffffffffffffffffffffffffffffffffffffffff16815260200190815260200160002060009054906101000a900460ff1615151461115e57600080fd5b6011600081548092919060010191905055506001601260003373ffffffffffffffffffffffffffffffffffffffff1673ffffffffffffffffffffffffffffffffffffffff16815260200190815260200160002060006101000a81548160ff021916908315150217905550423373ffffffffffffffffffffffffffffffffffffffff167fd7173ce7e4ce6f6d075259ac1a467ab8290db175a2cee8587a663c006b97e12960405160405180910390a3601154601054141561122157611220611edc565b5b565b60135481565b60095481565b60011515600d60009054906101000a900460ff1615151461124f57600080fd5b60011515600e60003373ffffffffffffffffffffffffffffffffffffffff1673ffffffffffffffffffffffffffffffffffffffff16815260200190815260200160002060009054906101000a900460ff161515146112ac57600080fd5b600460058111156112b957fe5b600d60019054906101000a900460ff1660058111156112d457fe5b146112de57600080fd5b600f60003373ffffffffffffffffffffffffffffffffffffffff1673ffffffffffffffffffffffffffffffffffffffff1681526020019081526020016000205447101561132757fe5b3373ffffffffffffffffffffffffffffffffffffffff166108fc600f60003373ffffffffffffffffffffffffffffffffffffffff1673ffffffffffffffffffffffffffffffffffffffff168152602001908152602001600020549081150290604051600060405180830381858888f193505050501580156113ac573d6000803e3d6000fd5b5042600f60003373ffffffffffffffffffffffffffffffffffffffff1673ffffffffffffffffffffffffffffffffffffffff168152602001908152602001600020543373ffffffffffffffffffffffffffffffffffffffff167f71e252e33f19f0223f47f27d00910548d26488b9b55cb5b410b75e273152f8d660405160405180910390a46000471415611501576000600d60006101000a81548160ff02191690831515021790555042600d60009054906101000a900460ff1615157f160914ea27c60aa29a5f3a69d74e6069869de36e38939de1e0a66b921d8623d260405160405180910390a36003600d60016101000a81548160ff021916908360058111156114b357fe5b021790555042600d60019054906101000a900460ff1660058111156114d457fe5b7faaae373901e745122c2e0925ad006227969c6cd190b7d5ea2fb7fdbd1d955b3560405160405180910390a35b565b600c5481565b60105481565b60035481565b60145481565b600160009054906101000a900473ffffffffffffffffffffffffffffffffffffffff1681565b6000809054906101000a900473ffffffffffffffffffffffffffffffffffffffff1673ffffffffffffffffffffffffffffffffffffffff163373ffffffffffffffffffffffffffffffffffffffff161461159a57600080fd5b6000809054906101000a900473ffffffffffffffffffffffffffffffffffffffff1673ffffffffffffffffffffffffffffffffffffffff16ff5b600260009054906101000a900473ffffffffffffffffffffffffffffffffffffffff1681565b600b5481565b60115481565b60126020528060005260406000206000915054906101000a900460ff1681565b600a5481565b600d60019054906101000a900460ff1681565b60065481565b60156020528060005260406000206000915054906101000a900460ff1681565b600060011515600d60009054906101000a900460ff1615151461168757600080fd5b60011515600e60003373ffffffffffffffffffffffffffffffffffffffff1673ffffffffffffffffffffffffffffffffffffffff16815260200190815260200160002060009054906101000a900460ff161515146116e457600080fd5b60001515601560003373ffffffffffffffffffffffffffffffffffffffff1673ffffffffffffffffffffffffffffffffffffffff16815260200190815260200160002060009054906101000a900460ff1615151461174157600080fd5b6014600081548092919060010191905055506001601560003373ffffffffffffffffffffffffffffffffffffffff1673ffffffffffffffffffffffffffffffffffffffff16815260200190815260200160002060006101000a81548160ff021916908315150217905550423373ffffffffffffffffffffffffffffffffffffffff167f1db613004119dde2a638b639fba9960c0e6064ee7c2d06f300e41c78920ed6dc60405160405180910390a3601454601054141561180a57611803611f4a565b905061180f565b600190505b90565b6000600581111561181f57fe5b600d60019054906101000a900460ff16600581111561183a57fe5b1461184457600080fd5b600080905060035447106119935761186760035447611ea990919063ffffffff16565b905061187c8147611ea990919063ffffffff16565b6003541461188657fe5b3481111561189057fe5b6000811115611926573373ffffffffffffffffffffffffffffffffffffffff166108fc829081150290604051600060405180830381858888f193505050501580156118df573d6000803e3d6000fd5b5042813373ffffffffffffffffffffffffffffffffffffffff167f566803f6e271b911c84f87631bcd310d6a6510bf8882577a96fc76975703e43160405160405180910390a45b6001600d60016101000a81548160ff0219169083600581111561194557fe5b021790555042600d60019054906101000a900460ff16600581111561196657fe5b7faaae373901e745122c2e0925ad006227969c6cd190b7d5ea2fb7fdbd1d955b3560405160405180910390a35b6001600e60003373ffffffffffffffffffffffffffffffffffffffff1673ffffffffffffffffffffffffffffffffffffffff16815260200190815260200160002060006101000a81548160ff021916908315150217905550601060008154809291906001019190505550611a61611a138234611ea990919063ffffffff16565b600f60003373ffffffffffffffffffffffffffffffffffffffff1673ffffffffffffffffffffffffffffffffffffffff16815260200190815260200160002054611ec090919063ffffffff16565b600f60003373ffffffffffffffffffffffffffffffffffffffff1673ffffffffffffffffffffffffffffffffffffffff1681526020019081526020016000208190555042611ab88234611ea990919063ffffffff16565b3373ffffffffffffffffffffffffffffffffffffffff167f1b0969ce7f5b05c5e0969329a05cdbd7e2e2f6cee33ba26fd6e6bbcff82312cd60405160405180910390a450565b60085481565b60011515600d60009054906101000a900460ff16151514611b2457600080fd5b60011515600e60003373ffffffffffffffffffffffffffffffffffffffff1673ffffffffffffffffffffffffffffffffffffffff16815260200190815260200160002060009054906101000a900460ff16151514611b8157600080fd5b60026005811115611b8e57fe5b600d60019054906101000a900460ff166005811115611ba957fe5b14611bb357600080fd5b6000600f60003373ffffffffffffffffffffffffffffffffffffffff1673ffffffffffffffffffffffffffffffffffffffff1681526020019081526020016000205411611bff57600080fd5b6000611c186010546004546121a290919063ffffffff16565b905080471015611c2457fe5b3373ffffffffffffffffffffffffffffffffffffffff166108fc829081150290604051600060405180830381858888f19350505050158015611c6a573d6000803e3d6000fd5b5042813373ffffffffffffffffffffffffffffffffffffffff167f052f6685df2f773f854b17db1d82e2352e222010daaf8175761f02ef8782c40360405160405180910390a46000471415611d80576000600d60006101000a81548160ff02191690831515021790555042600d60009054906101000a900460ff1615157f160914ea27c60aa29a5f3a69d74e6069869de36e38939de1e0a66b921d8623d260405160405180910390a36003600d60016101000a81548160ff02191690836005811115611d3257fe5b021790555042600d60019054906101000a900460ff166005811115611d5357fe5b7faaae373901e745122c2e0925ad006227969c6cd190b7d5ea2fb7fdbd1d955b3560405160405180910390a35b50565b6000806000806000806000806000806000600160009054906101000a900473ffffffffffffffffffffffffffffffffffffffff16600c54600354600754600954600854600654600454600d60019054906101000a900460ff16600d60009054906101000a900460ff16478a9a509a509a509a509a509a509a509a509a509a509a509a50909192939495969798999a565b60045481565b6000809054906101000a900473ffffffffffffffffffffffffffffffffffffffff1673ffffffffffffffffffffffffffffffffffffffff163373ffffffffffffffffffffffffffffffffffffffff1614611e7257600080fd5b8073ffffffffffffffffffffffffffffffffffffffff16ff5b60055481565b600f6020528060005260406000206000915090505481565b600082821115611eb557fe5b818303905092915050565b600080828401905083811015611ed257fe5b8091505092915050565b6004600d60016101000a81548160ff02191690836005811115611efb57fe5b021790555042600d60019054906101000a900460ff166005811115611f1c57fe5b7faaae373901e745122c2e0925ad006227969c6cd190b7d5ea2fb7fdbd1d955b3560405160405180910390a3565b60006060600160009054906101000a900473ffffffffffffffffffffffffffffffffffffffff16604051602401808273ffffffffffffffffffffffffffffffffffffffff1673ffffffffffffffffffffffffffffffffffffffff1681526020019150506040516020818303038152906040527fbb9e4247000000000000000000000000000000000000000000000000000000007bffffffffffffffffffffffffffffffffffffffffffffffffffffffff19166020820180517bffffffffffffffffffffffffffffffffffffffffffffffffffffffff838183161783525050505090506000600260009054906101000a900473ffffffffffffffffffffffffffffffffffffffff1673ffffffffffffffffffffffffffffffffffffffff16826040518082805190602001908083835b6020831061209b5780518252602082019150602081019050602083039250612078565b6001836020036101000a0380198251168184511680821785525050505050509050019150506000604051808303816000865af19150503d80600081146120fd576040519150601f19603f3d011682016040523d82523d6000602084013e612102565b606091505b505090508015612131576005600d60016101000a81548160ff0219169083600581111561212b57fe5b02179055505b42811515600160009054906101000a900473ffffffffffffffffffffffffffffffffffffffff1673ffffffffffffffffffffffffffffffffffffffff167fc1bb1d1e99d1e8d2705ba85717226a3fd9a86e4de2284b00dfe6f33538d5249f60405160405180910390a4809250505090565b6000808284816121ae57fe5b049050809150509291505056fea265627a7a72315820b53409fbdd5172b32579990901c52446271dd7bd931562ca5a24f3a7b04a5c4064736f6c63430005100032a265627a7a72315820a14c20f81181d675d743035304ce00c83d2d3cfd8d381fc7b40b029b28c382d064736f6c63430005100032",
  "source": "pragma solidity ^0.5.0;\r\n\r\nimport './common/SafeMath.sol';\r\nimport './common/Destructible.sol';\r\nimport './Credit.sol';\r\n\r\n/** @title Peer to peer lending contract.\r\n  * Inherits the Ownable and Destructible contracts.\r\n  */\r\ncontract PeerToPeerLending is Destructible {\r\n    /** @dev Usings */\r\n    // Using SafeMath for our calculations with uints.\r\n    using SafeMath for uint;\r\n\r\n    /** @dev State variables */\r\n\r\n    // User structure\r\n    struct User {\r\n        // Is the user currently credited.\r\n        bool credited;\r\n\r\n        // The address of the active credit.\r\n        address activeCredit;\r\n\r\n        // Is the user marked as fraudulent.\r\n        bool fraudStatus;\r\n\r\n        // All user credits.\r\n        address[] allCredits;\r\n    }\r\n\r\n    // We store all users in a mapping.\r\n    mapping(address => User) public users;\r\n\r\n    // Array of all credits addresses.\r\n    address[] public credits;\r\n\r\n    /** @dev Events */\r\n    event LogCreditCreated(address indexed _address, address indexed _borrower, uint indexed timestamp);\r\n    event LogCreditStateChanged(address indexed _address, Credit.State indexed state, uint indexed timestamp);\r\n    event LogCreditActiveChanged(address indexed _address, bool indexed active, uint indexed timestamp);\r\n    event LogUserSetFraud(address indexed _address, bool fraudStatus, uint timestamp);\r\n\r\n    /** @dev Constructor */\r\n    constructor() public {\r\n        // Initialization can be added if needed.\r\n    }\r\n\r\n    /** @dev Credit application function.\r\n      * @param requestedAmount Requested funding amount in wei.\r\n      * @param repaymentsCount Requested repayments count.\r\n      * @param creditDescription The description of the funding.\r\n      * @return credit Return credit address.\r\n      * The function publishes another contract which is the credit contract.\r\n      * The owner of the new contract is the present contract.\r\n      */\r\n    function applyForCredit(uint requestedAmount, uint repaymentsCount, uint interest, bytes32 creditDescription) public returns(address _credit) {\r\n        // The user should not have been credited;\r\n        require(users[msg.sender].credited == false, \"User already credited.\");\r\n\r\n        // The user should not be marked as fraudulent.\r\n        require(users[msg.sender].fraudStatus == false, \"User is marked as fraudulent.\");\r\n\r\n        // Assert there is no active credit for the user.\r\n        require(users[msg.sender].activeCredit == address(0), \"User has an active credit.\");\r\n\r\n        // Mark the user as credited. Prevent from reentrancy.\r\n        users[msg.sender].credited = true;\r\n\r\n        // Create a new credit contract with the given parameters.\r\n        Credit credit = new Credit(requestedAmount, repaymentsCount, interest, creditDescription);\r\n\r\n        // Set the user's active credit contract.\r\n        users[msg.sender].activeCredit = address(credit);\r\n\r\n        // Add the credit contract to our list of contracts.\r\n        credits.push(address(credit));\r\n\r\n        // Add the credit to the user's profile.\r\n        users[msg.sender].allCredits.push(address(credit));\r\n\r\n        // Log the credit creation event.\r\n        emit LogCreditCreated(address(credit), msg.sender, block.timestamp);\r\n\r\n        // Return the address of the newly created credit contract.\r\n        return address(credit);\r\n    }\r\n\r\n    /** @dev Get the list with all credits.\r\n      * @return credits Returns list of credit addresses.\r\n      */\r\n    function getCredits() public view returns (address[] memory) {\r\n        return credits;\r\n    }\r\n\r\n    /** @dev Get all user's credits.\r\n      * @return Returns user's credits.\r\n      */\r\n    function getUserCredits() public view returns (address[] memory) {\r\n        return users[msg.sender].allCredits;\r\n    }\r\n\r\n    /** @dev Sets user fraudulent status true.\r\n     * @param _borrower The user's address.\r\n     * @return users[_borrower].fraudStatus Boolean of the new fraud status.\r\n     */\r\n    function setFraudStatus(address _borrower) external returns (bool) {\r\n        // Update user fraud status.\r\n        users[_borrower].fraudStatus = true;\r\n\r\n        // Log fraud status.\r\n        emit LogUserSetFraud(_borrower, users[_borrower].fraudStatus, block.timestamp);\r\n\r\n        return users[_borrower].fraudStatus;\r\n    }\r\n\r\n    /** @dev Function to switch active state of a credit.\r\n      * @param _credit The credit's address.\r\n      * @param state New state.\r\n      */\r\n    function changeCreditState (Credit _credit, Credit.State state) public onlyOwner {\r\n        // Call credit contract changeStage.\r\n        Credit credit = Credit(_credit);\r\n        credit.changeState(state);\r\n\r\n        // Log state change.\r\n        emit LogCreditStateChanged(address(credit), state, block.timestamp);\r\n    }\r\n\r\n    /** @dev Function to toggle active state of credit contract.\r\n      * @param _credit The credit's address.\r\n      */\r\n    function toggleCreditActiveState (Credit _credit) public onlyOwner {\r\n        // Call credit contract toggleActive method.\r\n        Credit credit = Credit(_credit);\r\n        bool active = credit.toggleActive();\r\n\r\n        // Log state change.\r\n        emit LogCreditActiveChanged(address(credit), active, block.timestamp);\r\n    }\r\n}\r\n",
  "sourcePath": "E:\\CollegeLecturespdf\\Sem-7\\BlockChain\\Project\\p2p-lending\\smart-contracts\\contracts\\PeerToPeerLending.sol",
  "compiler": {
    "name": "solc",
    "version": "0.5.16+commit.9c3226ce.Emscripten.clang"
  },
  "schemaVersion": "3.4.16",
  "updatedAt": "2024-11-04T08:55:47.510Z",
  "networkType": "ethereum",
  "devdoc": {
    "methods": {
      "applyForCredit(uint256,uint256,uint256,bytes32)": {
        "details": "Credit application function.",
        "params": {
          "creditDescription": "The description of the funding.",
          "repaymentsCount": "Requested repayments count.",
          "requestedAmount": "Requested funding amount in wei."
        },
        "return": "credit Return credit address. The function publishes another contract which is the credit contract. The owner of the new contract is the present contract."
      },
      "changeCreditState(address,uint8)": {
        "details": "Function to switch active state of a credit.",
        "params": {
          "_credit": "The credit's address.",
          "state": "New state."
        }
      },
      "constructor": {
        "details": "Constructor "
      },
      "getCredits()": {
        "details": "Get the list with all credits.",
        "return": "credits Returns list of credit addresses."
      },
      "getUserCredits()": {
        "details": "Get all user's credits.",
        "return": "Returns user's credits."
      },
      "setFraudStatus(address)": {
        "details": "Sets user fraudulent status true.",
        "params": {
          "_borrower": "The user's address."
        },
        "return": "users[_borrower].fraudStatus Boolean of the new fraud status."
      },
      "toggleCreditActiveState(address)": {
        "details": "Function to toggle active state of credit contract.",
        "params": {
          "_credit": "The credit's address."
        }
      }
    },
    "title": "Peer to peer lending contract. Inherits the Ownable and Destructible contracts."
  },
  "userdoc": {
    "methods": {}
  }
}